{
  "contractName": "Ownable",
  "abi": [
    {
      "inputs": [],
      "stateMutability": "nonpayable",
      "type": "constructor"
    },
    {
      "anonymous": false,
      "inputs": [
        {
          "indexed": true,
          "internalType": "address",
          "name": "account",
          "type": "address"
        }
      ],
      "name": "ConsumerAdded",
      "type": "event"
    },
    {
      "anonymous": false,
      "inputs": [
        {
          "indexed": true,
          "internalType": "address",
          "name": "account",
          "type": "address"
        }
      ],
      "name": "ConsumerRemoved",
      "type": "event"
    },
    {
      "anonymous": false,
      "inputs": [
        {
          "indexed": true,
          "internalType": "address",
          "name": "account",
          "type": "address"
        }
      ],
      "name": "DistributorAdded",
      "type": "event"
    },
    {
      "anonymous": false,
      "inputs": [
        {
          "indexed": true,
          "internalType": "address",
          "name": "account",
          "type": "address"
        }
      ],
      "name": "DistributorRemoved",
      "type": "event"
    },
    {
      "anonymous": false,
      "inputs": [
        {
          "indexed": true,
          "internalType": "address",
          "name": "account",
          "type": "address"
        }
      ],
      "name": "FarmerAdded",
      "type": "event"
    },
    {
      "anonymous": false,
      "inputs": [
        {
          "indexed": true,
          "internalType": "address",
          "name": "account",
          "type": "address"
        }
      ],
      "name": "FarmerRemoved",
      "type": "event"
    },
    {
      "anonymous": false,
      "inputs": [
        {
          "indexed": false,
          "internalType": "uint256",
          "name": "upc",
          "type": "uint256"
        }
      ],
      "name": "ForSale",
      "type": "event"
    },
    {
      "anonymous": false,
      "inputs": [
        {
          "indexed": false,
          "internalType": "uint256",
          "name": "upc",
          "type": "uint256"
        }
      ],
      "name": "Harvested",
      "type": "event"
    },
    {
      "anonymous": false,
      "inputs": [
        {
          "indexed": false,
          "internalType": "uint256",
          "name": "upc",
          "type": "uint256"
        }
      ],
      "name": "Packed",
      "type": "event"
    },
    {
      "anonymous": false,
      "inputs": [
        {
          "indexed": false,
          "internalType": "uint256",
          "name": "upc",
          "type": "uint256"
        }
      ],
      "name": "Processed",
      "type": "event"
    },
    {
      "anonymous": false,
      "inputs": [
        {
          "indexed": false,
          "internalType": "uint256",
          "name": "upc",
          "type": "uint256"
        }
      ],
      "name": "Purchased",
      "type": "event"
    },
    {
      "anonymous": false,
      "inputs": [
        {
          "indexed": false,
          "internalType": "uint256",
          "name": "upc",
          "type": "uint256"
        }
      ],
      "name": "Received",
      "type": "event"
    },
    {
      "anonymous": false,
      "inputs": [
        {
          "indexed": true,
          "internalType": "address",
          "name": "account",
          "type": "address"
        }
      ],
      "name": "RetailerAdded",
      "type": "event"
    },
    {
      "anonymous": false,
      "inputs": [
        {
          "indexed": true,
          "internalType": "address",
          "name": "account",
          "type": "address"
        }
      ],
      "name": "RetailerRemoved",
      "type": "event"
    },
    {
      "anonymous": false,
      "inputs": [
        {
          "indexed": false,
          "internalType": "uint256",
          "name": "upc",
          "type": "uint256"
        }
      ],
      "name": "Shipped",
      "type": "event"
    },
    {
      "anonymous": false,
      "inputs": [
        {
          "indexed": false,
          "internalType": "uint256",
          "name": "upc",
          "type": "uint256"
        }
      ],
      "name": "Sold",
      "type": "event"
    },
    {
      "anonymous": false,
      "inputs": [
        {
          "indexed": true,
          "internalType": "address",
          "name": "oldOwner",
          "type": "address"
        },
        {
          "indexed": true,
          "internalType": "address",
          "name": "newOwner",
          "type": "address"
        }
      ],
      "name": "TransferOwnership",
      "type": "event"
    },
    {
      "inputs": [
        {
          "internalType": "address",
          "name": "account",
          "type": "address"
        }
      ],
      "name": "addConsumer",
      "outputs": [],
      "stateMutability": "nonpayable",
      "type": "function"
    },
    {
      "inputs": [
        {
          "internalType": "address",
          "name": "account",
          "type": "address"
        }
      ],
      "name": "addDistributor",
      "outputs": [],
      "stateMutability": "nonpayable",
      "type": "function"
    },
    {
      "inputs": [
        {
          "internalType": "address",
          "name": "account",
          "type": "address"
        }
      ],
      "name": "addFarmer",
      "outputs": [],
      "stateMutability": "nonpayable",
      "type": "function"
    },
    {
      "inputs": [
        {
          "internalType": "address",
          "name": "account",
          "type": "address"
        }
      ],
      "name": "addRetailer",
      "outputs": [],
      "stateMutability": "nonpayable",
      "type": "function"
    },
    {
      "inputs": [
        {
          "internalType": "uint256",
          "name": "_upc",
          "type": "uint256"
        }
      ],
      "name": "buyItem",
      "outputs": [],
      "stateMutability": "payable",
      "type": "function"
    },
    {
      "inputs": [
        {
          "internalType": "uint256",
          "name": "_upc",
          "type": "uint256"
        }
      ],
      "name": "fetchItemBufferOne",
      "outputs": [
        {
          "internalType": "uint256",
          "name": "itemSKU",
          "type": "uint256"
        },
        {
          "internalType": "uint256",
          "name": "itemUPC",
          "type": "uint256"
        },
        {
          "internalType": "address",
          "name": "ownerID",
          "type": "address"
        },
        {
          "internalType": "address",
          "name": "originFarmerID",
          "type": "address"
        },
        {
          "internalType": "string",
          "name": "originFarmName",
          "type": "string"
        },
        {
          "internalType": "string",
          "name": "originFarmInformation",
          "type": "string"
        },
        {
          "internalType": "string",
          "name": "originFarmLatitude",
          "type": "string"
        },
        {
          "internalType": "string",
          "name": "originFarmLongitude",
          "type": "string"
        }
      ],
      "stateMutability": "view",
      "type": "function"
    },
    {
      "inputs": [
        {
          "internalType": "uint256",
          "name": "_upc",
          "type": "uint256"
        }
      ],
      "name": "fetchItemBufferTwo",
      "outputs": [
        {
          "internalType": "uint256",
          "name": "itemSKU",
          "type": "uint256"
        },
        {
          "internalType": "uint256",
          "name": "itemUPC",
          "type": "uint256"
        },
        {
          "internalType": "uint256",
          "name": "productID",
          "type": "uint256"
        },
        {
          "internalType": "string",
          "name": "productNotes",
          "type": "string"
        },
        {
          "internalType": "uint256",
          "name": "productPrice",
          "type": "uint256"
        },
        {
          "internalType": "uint256",
          "name": "itemState",
          "type": "uint256"
        },
        {
          "internalType": "address",
          "name": "distributorID",
          "type": "address"
        },
        {
          "internalType": "address",
          "name": "retailerID",
          "type": "address"
        },
        {
          "internalType": "address",
          "name": "consumerID",
          "type": "address"
        }
      ],
      "stateMutability": "view",
      "type": "function"
    },
    {
      "inputs": [
        {
          "internalType": "uint256",
          "name": "_upc",
          "type": "uint256"
        },
        {
          "internalType": "address",
          "name": "_originFarmerID",
          "type": "address"
        },
        {
          "internalType": "string",
          "name": "_originFarmName",
          "type": "string"
        },
        {
          "internalType": "string",
          "name": "_originFarmInformation",
          "type": "string"
        },
        {
          "internalType": "string",
          "name": "_originFarmLatitude",
          "type": "string"
        },
        {
          "internalType": "string",
          "name": "_originFarmLongitude",
          "type": "string"
        },
        {
          "internalType": "string",
          "name": "_productNotes",
          "type": "string"
        }
      ],
      "name": "harvestItem",
      "outputs": [],
      "stateMutability": "nonpayable",
      "type": "function"
    },
    {
      "inputs": [
        {
          "internalType": "address",
          "name": "account",
          "type": "address"
        }
      ],
      "name": "isConsumer",
      "outputs": [
        {
          "internalType": "bool",
          "name": "",
          "type": "bool"
        }
      ],
      "stateMutability": "view",
      "type": "function"
    },
    {
      "inputs": [
        {
          "internalType": "address",
          "name": "account",
          "type": "address"
        }
      ],
      "name": "isDistributor",
      "outputs": [
        {
          "internalType": "bool",
          "name": "",
          "type": "bool"
        }
      ],
      "stateMutability": "view",
      "type": "function"
    },
    {
      "inputs": [
        {
          "internalType": "address",
          "name": "account",
          "type": "address"
        }
      ],
      "name": "isFarmer",
      "outputs": [
        {
          "internalType": "bool",
          "name": "",
          "type": "bool"
        }
      ],
      "stateMutability": "view",
      "type": "function"
    },
    {
      "inputs": [
        {
          "internalType": "address",
          "name": "account",
          "type": "address"
        }
      ],
      "name": "isRetailer",
      "outputs": [
        {
          "internalType": "bool",
          "name": "",
          "type": "bool"
        }
      ],
      "stateMutability": "view",
      "type": "function"
    },
    {
      "inputs": [],
      "name": "kill",
      "outputs": [],
      "stateMutability": "nonpayable",
      "type": "function"
    },
    {
      "inputs": [
        {
          "internalType": "uint256",
          "name": "_upc",
          "type": "uint256"
        }
      ],
      "name": "packItem",
      "outputs": [],
      "stateMutability": "nonpayable",
      "type": "function"
    },
    {
      "inputs": [
        {
          "internalType": "uint256",
          "name": "_upc",
          "type": "uint256"
        }
      ],
      "name": "processItem",
      "outputs": [],
      "stateMutability": "nonpayable",
      "type": "function"
    },
    {
      "inputs": [
        {
          "internalType": "uint256",
          "name": "_upc",
          "type": "uint256"
        }
      ],
      "name": "purchaseItem",
      "outputs": [],
      "stateMutability": "nonpayable",
      "type": "function"
    },
    {
      "inputs": [
        {
          "internalType": "uint256",
          "name": "_upc",
          "type": "uint256"
        }
      ],
      "name": "receiveItem",
      "outputs": [],
      "stateMutability": "nonpayable",
      "type": "function"
    },
    {
      "inputs": [],
      "name": "renounceConsumer",
      "outputs": [],
      "stateMutability": "nonpayable",
      "type": "function"
    },
    {
      "inputs": [],
      "name": "renounceDistributor",
      "outputs": [],
      "stateMutability": "nonpayable",
      "type": "function"
    },
    {
      "inputs": [],
      "name": "renounceFarmer",
      "outputs": [],
      "stateMutability": "nonpayable",
      "type": "function"
    },
    {
      "inputs": [],
      "name": "renounceRetailer",
      "outputs": [],
      "stateMutability": "nonpayable",
      "type": "function"
    },
    {
      "inputs": [
        {
          "internalType": "uint256",
          "name": "_upc",
          "type": "uint256"
        },
        {
          "internalType": "uint256",
          "name": "_price",
          "type": "uint256"
        }
      ],
      "name": "sellItem",
      "outputs": [],
      "stateMutability": "nonpayable",
      "type": "function"
    },
    {
      "inputs": [
        {
          "internalType": "uint256",
          "name": "_upc",
          "type": "uint256"
        }
      ],
      "name": "shipItem",
      "outputs": [],
      "stateMutability": "nonpayable",
      "type": "function"
    },
    {
      "inputs": [],
      "name": "contractOwner",
      "outputs": [
        {
          "internalType": "address",
          "name": "",
          "type": "address"
        }
      ],
      "stateMutability": "view",
      "type": "function"
    },
    {
      "inputs": [],
      "name": "isOwner",
      "outputs": [
        {
          "internalType": "bool",
          "name": "",
          "type": "bool"
        }
      ],
      "stateMutability": "view",
      "type": "function"
    },
    {
      "inputs": [],
      "name": "renounceOwnership",
      "outputs": [],
      "stateMutability": "nonpayable",
      "type": "function"
    },
    {
      "inputs": [
        {
          "internalType": "address",
          "name": "newOwner",
          "type": "address"
        }
      ],
      "name": "transferOwnership",
      "outputs": [],
      "stateMutability": "nonpayable",
      "type": "function"
    }
  ],
  "bytecode": "0x60806040523480156200001157600080fd5b5062000023336200016b60201b60201c565b6200003433620001cc60201b60201c565b62000045336200022d60201b60201c565b62000056336200028e60201b60201c565b33600460006101000a81548173ffffffffffffffffffffffffffffffffffffffff021916908373ffffffffffffffffffffffffffffffffffffffff1602179055506001600681905550600160058190555033600960006101000a81548173ffffffffffffffffffffffffffffffffffffffff021916908373ffffffffffffffffffffffffffffffffffffffff160217905550600960009054906101000a900473ffffffffffffffffffffffffffffffffffffffff1673ffffffffffffffffffffffffffffffffffffffff16600073ffffffffffffffffffffffffffffffffffffffff167f5c486528ec3e3f0ea91181cff8116f02bfa350e03b8b6f12e00765adbb5af85c60405160405180910390a36200043d565b62000186816000620002ef60201b620054991790919060201c565b8073ffffffffffffffffffffffffffffffffffffffff167f2e0ded4123377a3c2bc9a26f1717655a129e2f20752924d42e730ec89c83dbd060405160405180910390a250565b620001e7816001620002ef60201b620054991790919060201c565b8073ffffffffffffffffffffffffffffffffffffffff167fddbf200aa634dc3fb81cfd68583dd1040d1c751d335e1d86b631bde3e977fea860405160405180910390a250565b62000248816002620002ef60201b620054991790919060201c565b8073ffffffffffffffffffffffffffffffffffffffff167f71ae26cad02663e3d92efd6ec56031a80d74a20c0ab4183faa8bf262261c9baa60405160405180910390a250565b620002a9816003620002ef60201b620054991790919060201c565b8073ffffffffffffffffffffffffffffffffffffffff167f28b26e7a3d20aedbc5f8f2ebf7da671c0491723a2b78f47a097b0e46dee0714260405160405180910390a250565b80600073ffffffffffffffffffffffffffffffffffffffff168173ffffffffffffffffffffffffffffffffffffffff1614156200032b57600080fd5b6200033d8383620003a760201b60201c565b156200034857600080fd5b60018360000160008473ffffffffffffffffffffffffffffffffffffffff1673ffffffffffffffffffffffffffffffffffffffff16815260200190815260200160002060006101000a81548160ff021916908315150217905550505050565b600081600073ffffffffffffffffffffffffffffffffffffffff168173ffffffffffffffffffffffffffffffffffffffff161415620003e557600080fd5b8360000160008473ffffffffffffffffffffffffffffffffffffffff1673ffffffffffffffffffffffffffffffffffffffff16815260200190815260200160002060009054906101000a900460ff1691505092915050565b616361806200044d6000396000f3fe60806040526004361061019c5760003560e01c8063834ff739116100ec578063ce606ee01161008a578063e7fb74c711610064578063e7fb74c71461056f578063f2fde38b1461058b578063f30fc480146105b4578063f61c899a146105dd5761019c565b8063ce606ee014610504578063d38ea5bf1461052f578063db0e6a2f146105585761019c565b80638f32d59b116100c65780638f32d59b1461044a578063a26be99914610475578063b94290691461049e578063bdd8a6a8146104db5761019c565b8063834ff739146103a75780638ec4f505146103e45780638f0c86fa1461040d5761019c565b8063644241db116101595780637250e224116101335780637250e224146102fa57806377c459131461032357806380c3f96d1461036757806380fc0ce4146103905761019c565b8063644241db1461028757806366225ff91461029e578063715018a6146102e35761019c565b8063112940f9146101a15780632d923561146101ca57806341c0e1b5146101f357806349dae7661461020a5780635da09b881461023357806361e6982d14610270575b600080fd5b3480156101ad57600080fd5b506101c860048036038101906101c39190615c5e565b610606565b005b3480156101d657600080fd5b506101f160048036038101906101ec9190615cc1565b61061c565b005b3480156101ff57600080fd5b50610208610e9f565b005b34801561021657600080fd5b50610231600480360381019061022c9190615d01565b610f32565b005b34801561023f57600080fd5b5061025a60048036038101906102559190615c5e565b6117a7565b6040516102679190615d49565b60405180910390f35b34801561027c57600080fd5b506102856117c4565b005b34801561029357600080fd5b5061029c6117cf565b005b3480156102aa57600080fd5b506102c560048036038101906102c09190615d01565b6117da565b6040516102da99989796959493929190615e1b565b60405180910390f35b3480156102ef57600080fd5b506102f8611d5c565b005b34801561030657600080fd5b50610321600480360381019061031c9190615c5e565b611e2e565b005b34801561032f57600080fd5b5061034a60048036038101906103459190615d01565b611e4c565b60405161035e989796959493929190615eaf565b60405180910390f35b34801561037357600080fd5b5061038e60048036038101906103899190615c5e565b6123aa565b005b34801561039c57600080fd5b506103a56123c8565b005b3480156103b357600080fd5b506103ce60048036038101906103c99190615c5e565b6123d3565b6040516103db9190615d49565b60405180910390f35b3480156103f057600080fd5b5061040b60048036038101906104069190615c5e565b6123f0565b005b34801561041957600080fd5b50610434600480360381019061042f9190615c5e565b612406565b6040516104419190615d49565b60405180910390f35b34801561045657600080fd5b5061045f612423565b60405161046c9190615d49565b60405180910390f35b34801561048157600080fd5b5061049c60048036038101906104979190615d01565b61247b565b005b3480156104aa57600080fd5b506104c560048036038101906104c09190615c5e565b612d33565b6040516104d29190615d49565b60405180910390f35b3480156104e757600080fd5b5061050260048036038101906104fd919061607e565b612d50565b005b34801561051057600080fd5b50610519613116565b60405161052691906161ac565b60405180910390f35b34801561053b57600080fd5b5061055660048036038101906105519190615d01565b613140565b005b34801561056457600080fd5b5061056d6139f8565b005b61058960048036038101906105849190615d01565b613a03565b005b34801561059757600080fd5b506105b260048036038101906105ad9190615c5e565b61438e565b005b3480156105c057600080fd5b506105db60048036038101906105d69190615d01565b6143ab565b005b3480156105e957600080fd5b5061060460048036038101906105ff9190615d01565b614c22565b005b61060f336123d3565b5061061981615547565b50565b8160026007811115610631576106306161c7565b5b600760006005548152602001908152602001600020600b0160009054906101000a900460ff166007811115610669576106686161c7565b5b1461067357600080fd5b338073ffffffffffffffffffffffffffffffffffffffff163373ffffffffffffffffffffffffffffffffffffffff16146106ac57600080fd5b600060076000868152602001908152602001600020604051806101e001604052908160008201548152602001600182015481526020016002820160009054906101000a900473ffffffffffffffffffffffffffffffffffffffff1673ffffffffffffffffffffffffffffffffffffffff1673ffffffffffffffffffffffffffffffffffffffff1681526020016003820160009054906101000a900473ffffffffffffffffffffffffffffffffffffffff1673ffffffffffffffffffffffffffffffffffffffff1673ffffffffffffffffffffffffffffffffffffffff16815260200160048201805461079d90616225565b80601f01602080910402602001604051908101604052809291908181526020018280546107c990616225565b80156108165780601f106107eb57610100808354040283529160200191610816565b820191906000526020600020905b8154815290600101906020018083116107f957829003601f168201915b5050505050815260200160058201805461082f90616225565b80601f016020809104026020016040519081016040528092919081815260200182805461085b90616225565b80156108a85780601f1061087d576101008083540402835291602001916108a8565b820191906000526020600020905b81548152906001019060200180831161088b57829003601f168201915b505050505081526020016006820180546108c190616225565b80601f01602080910402602001604051908101604052809291908181526020018280546108ed90616225565b801561093a5780601f1061090f5761010080835404028352916020019161093a565b820191906000526020600020905b81548152906001019060200180831161091d57829003601f168201915b5050505050815260200160078201805461095390616225565b80601f016020809104026020016040519081016040528092919081815260200182805461097f90616225565b80156109cc5780601f106109a1576101008083540402835291602001916109cc565b820191906000526020600020905b8154815290600101906020018083116109af57829003601f168201915b50505050508152602001600882015481526020016009820180546109ef90616225565b80601f0160208091040260200160405190810160405280929190818152602001828054610a1b90616225565b8015610a685780601f10610a3d57610100808354040283529160200191610a68565b820191906000526020600020905b815481529060010190602001808311610a4b57829003601f168201915b50505050508152602001600a8201548152602001600b820160009054906101000a900460ff166007811115610aa057610a9f6161c7565b5b6007811115610ab257610ab16161c7565b5b8152602001600b820160019054906101000a900473ffffffffffffffffffffffffffffffffffffffff1673ffffffffffffffffffffffffffffffffffffffff1673ffffffffffffffffffffffffffffffffffffffff168152602001600c820160009054906101000a900473ffffffffffffffffffffffffffffffffffffffff1673ffffffffffffffffffffffffffffffffffffffff1673ffffffffffffffffffffffffffffffffffffffff168152602001600d820160009054906101000a900473ffffffffffffffffffffffffffffffffffffffff1673ffffffffffffffffffffffffffffffffffffffff1673ffffffffffffffffffffffffffffffffffffffff1681525050905060038161016001906007811115610bd457610bd36161c7565b5b90816007811115610be857610be76161c7565b5b8152505083816101400181815250508060076000878152602001908152602001600020600082015181600001556020820151816001015560408201518160020160006101000a81548173ffffffffffffffffffffffffffffffffffffffff021916908373ffffffffffffffffffffffffffffffffffffffff16021790555060608201518160030160006101000a81548173ffffffffffffffffffffffffffffffffffffffff021916908373ffffffffffffffffffffffffffffffffffffffff1602179055506080820151816004019080519060200190610cc9929190615a53565b5060a0820151816005019080519060200190610ce6929190615a53565b5060c0820151816006019080519060200190610d03929190615a53565b5060e0820151816007019080519060200190610d20929190615a53565b506101008201518160080155610120820151816009019080519060200190610d49929190615a53565b5061014082015181600a015561016082015181600b0160006101000a81548160ff02191690836007811115610d8157610d806161c7565b5b021790555061018082015181600b0160016101000a81548173ffffffffffffffffffffffffffffffffffffffff021916908373ffffffffffffffffffffffffffffffffffffffff1602179055506101a082015181600c0160006101000a81548173ffffffffffffffffffffffffffffffffffffffff021916908373ffffffffffffffffffffffffffffffffffffffff1602179055506101c082015181600d0160006101000a81548173ffffffffffffffffffffffffffffffffffffffff021916908373ffffffffffffffffffffffffffffffffffffffff1602179055509050507fa96ae0fc3224ebd79eebfe54bd130cc9cb94416cddd1f2386115e00b7253246885604051610e909190616257565b60405180910390a15050505050565b600460009054906101000a900473ffffffffffffffffffffffffffffffffffffffff1673ffffffffffffffffffffffffffffffffffffffff163373ffffffffffffffffffffffffffffffffffffffff161415610f3057600460009054906101000a900473ffffffffffffffffffffffffffffffffffffffff1673ffffffffffffffffffffffffffffffffffffffff16ff5b565b8060006007811115610f4757610f466161c7565b5b60076000838152602001908152602001600020600b0160009054906101000a900460ff166007811115610f7d57610f7c6161c7565b5b14610f8757600080fd5b338073ffffffffffffffffffffffffffffffffffffffff163373ffffffffffffffffffffffffffffffffffffffff1614610fc057600080fd5b600060076000858152602001908152602001600020604051806101e001604052908160008201548152602001600182015481526020016002820160009054906101000a900473ffffffffffffffffffffffffffffffffffffffff1673ffffffffffffffffffffffffffffffffffffffff1673ffffffffffffffffffffffffffffffffffffffff1681526020016003820160009054906101000a900473ffffffffffffffffffffffffffffffffffffffff1673ffffffffffffffffffffffffffffffffffffffff1673ffffffffffffffffffffffffffffffffffffffff1681526020016004820180546110b190616225565b80601f01602080910402602001604051908101604052809291908181526020018280546110dd90616225565b801561112a5780601f106110ff5761010080835404028352916020019161112a565b820191906000526020600020905b81548152906001019060200180831161110d57829003601f168201915b5050505050815260200160058201805461114390616225565b80601f016020809104026020016040519081016040528092919081815260200182805461116f90616225565b80156111bc5780601f10611191576101008083540402835291602001916111bc565b820191906000526020600020905b81548152906001019060200180831161119f57829003601f168201915b505050505081526020016006820180546111d590616225565b80601f016020809104026020016040519081016040528092919081815260200182805461120190616225565b801561124e5780601f106112235761010080835404028352916020019161124e565b820191906000526020600020905b81548152906001019060200180831161123157829003601f168201915b5050505050815260200160078201805461126790616225565b80601f016020809104026020016040519081016040528092919081815260200182805461129390616225565b80156112e05780601f106112b5576101008083540402835291602001916112e0565b820191906000526020600020905b8154815290600101906020018083116112c357829003601f168201915b505050505081526020016008820154815260200160098201805461130390616225565b80601f016020809104026020016040519081016040528092919081815260200182805461132f90616225565b801561137c5780601f106113515761010080835404028352916020019161137c565b820191906000526020600020905b81548152906001019060200180831161135f57829003601f168201915b50505050508152602001600a8201548152602001600b820160009054906101000a900460ff1660078111156113b4576113b36161c7565b5b60078111156113c6576113c56161c7565b5b8152602001600b820160019054906101000a900473ffffffffffffffffffffffffffffffffffffffff1673ffffffffffffffffffffffffffffffffffffffff1673ffffffffffffffffffffffffffffffffffffffff168152602001600c820160009054906101000a900473ffffffffffffffffffffffffffffffffffffffff1673ffffffffffffffffffffffffffffffffffffffff1673ffffffffffffffffffffffffffffffffffffffff168152602001600d820160009054906101000a900473ffffffffffffffffffffffffffffffffffffffff1673ffffffffffffffffffffffffffffffffffffffff1673ffffffffffffffffffffffffffffffffffffffff16815250509050600181610160019060078111156114e8576114e76161c7565b5b908160078111156114fc576114fb6161c7565b5b815250508060076000868152602001908152602001600020600082015181600001556020820151816001015560408201518160020160006101000a81548173ffffffffffffffffffffffffffffffffffffffff021916908373ffffffffffffffffffffffffffffffffffffffff16021790555060608201518160030160006101000a81548173ffffffffffffffffffffffffffffffffffffffff021916908373ffffffffffffffffffffffffffffffffffffffff16021790555060808201518160040190805190602001906115d2929190615a53565b5060a08201518160050190805190602001906115ef929190615a53565b5060c082015181600601908051906020019061160c929190615a53565b5060e0820151816007019080519060200190611629929190615a53565b506101008201518160080155610120820151816009019080519060200190611652929190615a53565b5061014082015181600a015561016082015181600b0160006101000a81548160ff0219169083600781111561168a576116896161c7565b5b021790555061018082015181600b0160016101000a81548173ffffffffffffffffffffffffffffffffffffffff021916908373ffffffffffffffffffffffffffffffffffffffff1602179055506101a082015181600c0160006101000a81548173ffffffffffffffffffffffffffffffffffffffff021916908373ffffffffffffffffffffffffffffffffffffffff1602179055506101c082015181600d0160006101000a81548173ffffffffffffffffffffffffffffffffffffffff021916908373ffffffffffffffffffffffffffffffffffffffff1602179055509050507f5afe3b1bf87069693c075da5c22a98d63d1aef98a30dbbe538d0781a98b77ee5846040516117999190616257565b60405180910390a150505050565b60006117bd8260026155a190919063ffffffff16565b9050919050565b6117cd33615636565b565b6117d833615690565b565b60008060006060600080600080600080600760008c8152602001908152602001600020604051806101e001604052908160008201548152602001600182015481526020016002820160009054906101000a900473ffffffffffffffffffffffffffffffffffffffff1673ffffffffffffffffffffffffffffffffffffffff1673ffffffffffffffffffffffffffffffffffffffff1681526020016003820160009054906101000a900473ffffffffffffffffffffffffffffffffffffffff1673ffffffffffffffffffffffffffffffffffffffff1673ffffffffffffffffffffffffffffffffffffffff1681526020016004820180546118d990616225565b80601f016020809104026020016040519081016040528092919081815260200182805461190590616225565b80156119525780601f1061192757610100808354040283529160200191611952565b820191906000526020600020905b81548152906001019060200180831161193557829003601f168201915b5050505050815260200160058201805461196b90616225565b80601f016020809104026020016040519081016040528092919081815260200182805461199790616225565b80156119e45780601f106119b9576101008083540402835291602001916119e4565b820191906000526020600020905b8154815290600101906020018083116119c757829003601f168201915b505050505081526020016006820180546119fd90616225565b80601f0160208091040260200160405190810160405280929190818152602001828054611a2990616225565b8015611a765780601f10611a4b57610100808354040283529160200191611a76565b820191906000526020600020905b815481529060010190602001808311611a5957829003601f168201915b50505050508152602001600782018054611a8f90616225565b80601f0160208091040260200160405190810160405280929190818152602001828054611abb90616225565b8015611b085780601f10611add57610100808354040283529160200191611b08565b820191906000526020600020905b815481529060010190602001808311611aeb57829003601f168201915b5050505050815260200160088201548152602001600982018054611b2b90616225565b80601f0160208091040260200160405190810160405280929190818152602001828054611b5790616225565b8015611ba45780601f10611b7957610100808354040283529160200191611ba4565b820191906000526020600020905b815481529060010190602001808311611b8757829003601f168201915b50505050508152602001600a8201548152602001600b820160009054906101000a900460ff166007811115611bdc57611bdb6161c7565b5b6007811115611bee57611bed6161c7565b5b8152602001600b820160019054906101000a900473ffffffffffffffffffffffffffffffffffffffff1673ffffffffffffffffffffffffffffffffffffffff1673ffffffffffffffffffffffffffffffffffffffff168152602001600c820160009054906101000a900473ffffffffffffffffffffffffffffffffffffffff1673ffffffffffffffffffffffffffffffffffffffff1673ffffffffffffffffffffffffffffffffffffffff168152602001600d820160009054906101000a900473ffffffffffffffffffffffffffffffffffffffff1673ffffffffffffffffffffffffffffffffffffffff1673ffffffffffffffffffffffffffffffffffffffff1681525050905080600001519950806020015198508061010001519750806101200151965080610140015195508061016001516007811115611d3457611d336161c7565b5b94508061018001519350806101a001519250806101c001519150509193959799909294969850565b611d64612423565b611d6d57600080fd5b600073ffffffffffffffffffffffffffffffffffffffff16600960009054906101000a900473ffffffffffffffffffffffffffffffffffffffff1673ffffffffffffffffffffffffffffffffffffffff167f5c486528ec3e3f0ea91181cff8116f02bfa350e03b8b6f12e00765adbb5af85c60405160405180910390a36000600960006101000a81548173ffffffffffffffffffffffffffffffffffffffff021916908373ffffffffffffffffffffffffffffffffffffffff160217905550565b611e3733612406565b611e4057600080fd5b611e49816156ea565b50565b6000806000806060806060806000600760008b8152602001908152602001600020604051806101e001604052908160008201548152602001600182015481526020016002820160009054906101000a900473ffffffffffffffffffffffffffffffffffffffff1673ffffffffffffffffffffffffffffffffffffffff1673ffffffffffffffffffffffffffffffffffffffff1681526020016003820160009054906101000a900473ffffffffffffffffffffffffffffffffffffffff1673ffffffffffffffffffffffffffffffffffffffff1673ffffffffffffffffffffffffffffffffffffffff168152602001600482018054611f4990616225565b80601f0160208091040260200160405190810160405280929190818152602001828054611f7590616225565b8015611fc25780601f10611f9757610100808354040283529160200191611fc2565b820191906000526020600020905b815481529060010190602001808311611fa557829003601f168201915b50505050508152602001600582018054611fdb90616225565b80601f016020809104026020016040519081016040528092919081815260200182805461200790616225565b80156120545780601f1061202957610100808354040283529160200191612054565b820191906000526020600020905b81548152906001019060200180831161203757829003601f168201915b5050505050815260200160068201805461206d90616225565b80601f016020809104026020016040519081016040528092919081815260200182805461209990616225565b80156120e65780601f106120bb576101008083540402835291602001916120e6565b820191906000526020600020905b8154815290600101906020018083116120c957829003601f168201915b505050505081526020016007820180546120ff90616225565b80601f016020809104026020016040519081016040528092919081815260200182805461212b90616225565b80156121785780601f1061214d57610100808354040283529160200191612178565b820191906000526020600020905b81548152906001019060200180831161215b57829003601f168201915b505050505081526020016008820154815260200160098201805461219b90616225565b80601f01602080910402602001604051908101604052809291908181526020018280546121c790616225565b80156122145780601f106121e957610100808354040283529160200191612214565b820191906000526020600020905b8154815290600101906020018083116121f757829003601f168201915b50505050508152602001600a8201548152602001600b820160009054906101000a900460ff16600781111561224c5761224b6161c7565b5b600781111561225e5761225d6161c7565b5b8152602001600b820160019054906101000a900473ffffffffffffffffffffffffffffffffffffffff1673ffffffffffffffffffffffffffffffffffffffff1673ffffffffffffffffffffffffffffffffffffffff168152602001600c820160009054906101000a900473ffffffffffffffffffffffffffffffffffffffff1673ffffffffffffffffffffffffffffffffffffffff1673ffffffffffffffffffffffffffffffffffffffff168152602001600d820160009054906101000a900473ffffffffffffffffffffffffffffffffffffffff1673ffffffffffffffffffffffffffffffffffffffff1673ffffffffffffffffffffffffffffffffffffffff1681525050905080600001519850806020015197508060400151965080606001519550806080015194508060a0015193508060c0015192508060e00151915050919395975091939597565b6123b333612d33565b6123bc57600080fd5b6123c581615744565b50565b6123d13361579e565b565b60006123e98260036155a190919063ffffffff16565b9050919050565b6123f9336117a7565b50612403816157f8565b50565b600061241c8260016155a190919063ffffffff16565b9050919050565b6000600960009054906101000a900473ffffffffffffffffffffffffffffffffffffffff1673ffffffffffffffffffffffffffffffffffffffff163373ffffffffffffffffffffffffffffffffffffffff1614905090565b80600560078111156124905761248f6161c7565b5b600760006005548152602001908152602001600020600b0160009054906101000a900460ff1660078111156124c8576124c76161c7565b5b146124d257600080fd5b6124db336117a7565b50600060076000848152602001908152602001600020604051806101e001604052908160008201548152602001600182015481526020016002820160009054906101000a900473ffffffffffffffffffffffffffffffffffffffff1673ffffffffffffffffffffffffffffffffffffffff1673ffffffffffffffffffffffffffffffffffffffff1681526020016003820160009054906101000a900473ffffffffffffffffffffffffffffffffffffffff1673ffffffffffffffffffffffffffffffffffffffff1673ffffffffffffffffffffffffffffffffffffffff1681526020016004820180546125cd90616225565b80601f01602080910402602001604051908101604052809291908181526020018280546125f990616225565b80156126465780601f1061261b57610100808354040283529160200191612646565b820191906000526020600020905b81548152906001019060200180831161262957829003601f168201915b5050505050815260200160058201805461265f90616225565b80601f016020809104026020016040519081016040528092919081815260200182805461268b90616225565b80156126d85780601f106126ad576101008083540402835291602001916126d8565b820191906000526020600020905b8154815290600101906020018083116126bb57829003601f168201915b505050505081526020016006820180546126f190616225565b80601f016020809104026020016040519081016040528092919081815260200182805461271d90616225565b801561276a5780601f1061273f5761010080835404028352916020019161276a565b820191906000526020600020905b81548152906001019060200180831161274d57829003601f168201915b5050505050815260200160078201805461278390616225565b80601f01602080910402602001604051908101604052809291908181526020018280546127af90616225565b80156127fc5780601f106127d1576101008083540402835291602001916127fc565b820191906000526020600020905b8154815290600101906020018083116127df57829003601f168201915b505050505081526020016008820154815260200160098201805461281f90616225565b80601f016020809104026020016040519081016040528092919081815260200182805461284b90616225565b80156128985780601f1061286d57610100808354040283529160200191612898565b820191906000526020600020905b81548152906001019060200180831161287b57829003601f168201915b50505050508152602001600a8201548152602001600b820160009054906101000a900460ff1660078111156128d0576128cf6161c7565b5b60078111156128e2576128e16161c7565b5b8152602001600b820160019054906101000a900473ffffffffffffffffffffffffffffffffffffffff1673ffffffffffffffffffffffffffffffffffffffff1673ffffffffffffffffffffffffffffffffffffffff168152602001600c820160009054906101000a900473ffffffffffffffffffffffffffffffffffffffff1673ffffffffffffffffffffffffffffffffffffffff1673ffffffffffffffffffffffffffffffffffffffff168152602001600d820160009054906101000a900473ffffffffffffffffffffffffffffffffffffffff1673ffffffffffffffffffffffffffffffffffffffff1673ffffffffffffffffffffffffffffffffffffffff1681525050905033816040019073ffffffffffffffffffffffffffffffffffffffff16908173ffffffffffffffffffffffffffffffffffffffff168152505033816101a0019073ffffffffffffffffffffffffffffffffffffffff16908173ffffffffffffffffffffffffffffffffffffffff168152505060068161016001906007811115612a7557612a746161c7565b5b90816007811115612a8957612a886161c7565b5b815250508060076000858152602001908152602001600020600082015181600001556020820151816001015560408201518160020160006101000a81548173ffffffffffffffffffffffffffffffffffffffff021916908373ffffffffffffffffffffffffffffffffffffffff16021790555060608201518160030160006101000a81548173ffffffffffffffffffffffffffffffffffffffff021916908373ffffffffffffffffffffffffffffffffffffffff1602179055506080820151816004019080519060200190612b5f929190615a53565b5060a0820151816005019080519060200190612b7c929190615a53565b5060c0820151816006019080519060200190612b99929190615a53565b5060e0820151816007019080519060200190612bb6929190615a53565b506101008201518160080155610120820151816009019080519060200190612bdf929190615a53565b5061014082015181600a015561016082015181600b0160006101000a81548160ff02191690836007811115612c1757612c166161c7565b5b021790555061018082015181600b0160016101000a81548173ffffffffffffffffffffffffffffffffffffffff021916908373ffffffffffffffffffffffffffffffffffffffff1602179055506101a082015181600c0160006101000a81548173ffffffffffffffffffffffffffffffffffffffff021916908373ffffffffffffffffffffffffffffffffffffffff1602179055506101c082015181600d0160006101000a81548173ffffffffffffffffffffffffffffffffffffffff021916908373ffffffffffffffffffffffffffffffffffffffff1602179055509050507fa8142743f8f70a4c26f3691cf4ed59718381fb2f18070ec52be1f1022d85555783604051612d269190616257565b60405180910390a1505050565b6000612d498260006155a190919063ffffffff16565b9050919050565b612d58615ad9565b6006548160000181815250508781602001818152505086816040019073ffffffffffffffffffffffffffffffffffffffff16908173ffffffffffffffffffffffffffffffffffffffff168152505086816060019073ffffffffffffffffffffffffffffffffffffffff16908173ffffffffffffffffffffffffffffffffffffffff1681525050858160800181905250848160a00181905250838160c00181905250828160e0018190525060008161016001906007811115612e1c57612e1b6161c7565b5b90816007811115612e3057612e2f6161c7565b5b8152505087600654612e4291906162a1565b816101000181815250508181610120018190525080600760008a8152602001908152602001600020600082015181600001556020820151816001015560408201518160020160006101000a81548173ffffffffffffffffffffffffffffffffffffffff021916908373ffffffffffffffffffffffffffffffffffffffff16021790555060608201518160030160006101000a81548173ffffffffffffffffffffffffffffffffffffffff021916908373ffffffffffffffffffffffffffffffffffffffff1602179055506080820151816004019080519060200190612f28929190615a53565b5060a0820151816005019080519060200190612f45929190615a53565b5060c0820151816006019080519060200190612f62929190615a53565b5060e0820151816007019080519060200190612f7f929190615a53565b506101008201518160080155610120820151816009019080519060200190612fa8929190615a53565b5061014082015181600a015561016082015181600b0160006101000a81548160ff02191690836007811115612fe057612fdf6161c7565b5b021790555061018082015181600b0160016101000a81548173ffffffffffffffffffffffffffffffffffffffff021916908373ffffffffffffffffffffffffffffffffffffffff1602179055506101a082015181600c0160006101000a81548173ffffffffffffffffffffffffffffffffffffffff021916908373ffffffffffffffffffffffffffffffffffffffff1602179055506101c082015181600d0160006101000a81548173ffffffffffffffffffffffffffffffffffffffff021916908373ffffffffffffffffffffffffffffffffffffffff16021790555090505060016006546130cf91906162a1565b6006819055507f8e55ccfc9778ff8eba1646d765cf1982537ce0f9257054a17b48aad745250183886040516131049190616257565b60405180910390a15050505050505050565b6000600960009054906101000a900473ffffffffffffffffffffffffffffffffffffffff16905090565b8060066007811115613155576131546161c7565b5b600760006005548152602001908152602001600020600b0160009054906101000a900460ff16600781111561318d5761318c6161c7565b5b1461319757600080fd5b6131a0336123d3565b50600060076000848152602001908152602001600020604051806101e001604052908160008201548152602001600182015481526020016002820160009054906101000a900473ffffffffffffffffffffffffffffffffffffffff1673ffffffffffffffffffffffffffffffffffffffff1673ffffffffffffffffffffffffffffffffffffffff1681526020016003820160009054906101000a900473ffffffffffffffffffffffffffffffffffffffff1673ffffffffffffffffffffffffffffffffffffffff1673ffffffffffffffffffffffffffffffffffffffff16815260200160048201805461329290616225565b80601f01602080910402602001604051908101604052809291908181526020018280546132be90616225565b801561330b5780601f106132e05761010080835404028352916020019161330b565b820191906000526020600020905b8154815290600101906020018083116132ee57829003601f168201915b5050505050815260200160058201805461332490616225565b80601f016020809104026020016040519081016040528092919081815260200182805461335090616225565b801561339d5780601f106133725761010080835404028352916020019161339d565b820191906000526020600020905b81548152906001019060200180831161338057829003601f168201915b505050505081526020016006820180546133b690616225565b80601f01602080910402602001604051908101604052809291908181526020018280546133e290616225565b801561342f5780601f106134045761010080835404028352916020019161342f565b820191906000526020600020905b81548152906001019060200180831161341257829003601f168201915b5050505050815260200160078201805461344890616225565b80601f016020809104026020016040519081016040528092919081815260200182805461347490616225565b80156134c15780601f10613496576101008083540402835291602001916134c1565b820191906000526020600020905b8154815290600101906020018083116134a457829003601f168201915b50505050508152602001600882015481526020016009820180546134e490616225565b80601f016020809104026020016040519081016040528092919081815260200182805461351090616225565b801561355d5780601f106135325761010080835404028352916020019161355d565b820191906000526020600020905b81548152906001019060200180831161354057829003601f168201915b50505050508152602001600a8201548152602001600b820160009054906101000a900460ff166007811115613595576135946161c7565b5b60078111156135a7576135a66161c7565b5b8152602001600b820160019054906101000a900473ffffffffffffffffffffffffffffffffffffffff1673ffffffffffffffffffffffffffffffffffffffff1673ffffffffffffffffffffffffffffffffffffffff168152602001600c820160009054906101000a900473ffffffffffffffffffffffffffffffffffffffff1673ffffffffffffffffffffffffffffffffffffffff1673ffffffffffffffffffffffffffffffffffffffff168152602001600d820160009054906101000a900473ffffffffffffffffffffffffffffffffffffffff1673ffffffffffffffffffffffffffffffffffffffff1673ffffffffffffffffffffffffffffffffffffffff1681525050905033816040019073ffffffffffffffffffffffffffffffffffffffff16908173ffffffffffffffffffffffffffffffffffffffff168152505033816101c0019073ffffffffffffffffffffffffffffffffffffffff16908173ffffffffffffffffffffffffffffffffffffffff16815250506007816101600190600781111561373a576137396161c7565b5b9081600781111561374e5761374d6161c7565b5b815250508060076000858152602001908152602001600020600082015181600001556020820151816001015560408201518160020160006101000a81548173ffffffffffffffffffffffffffffffffffffffff021916908373ffffffffffffffffffffffffffffffffffffffff16021790555060608201518160030160006101000a81548173ffffffffffffffffffffffffffffffffffffffff021916908373ffffffffffffffffffffffffffffffffffffffff1602179055506080820151816004019080519060200190613824929190615a53565b5060a0820151816005019080519060200190613841929190615a53565b5060c082015181600601908051906020019061385e929190615a53565b5060e082015181600701908051906020019061387b929190615a53565b5061010082015181600801556101208201518160090190805190602001906138a4929190615a53565b5061014082015181600a015561016082015181600b0160006101000a81548160ff021916908360078111156138dc576138db6161c7565b5b021790555061018082015181600b0160016101000a81548173ffffffffffffffffffffffffffffffffffffffff021916908373ffffffffffffffffffffffffffffffffffffffff1602179055506101a082015181600c0160006101000a81548173ffffffffffffffffffffffffffffffffffffffff021916908373ffffffffffffffffffffffffffffffffffffffff1602179055506101c082015181600d0160006101000a81548173ffffffffffffffffffffffffffffffffffffffff021916908373ffffffffffffffffffffffffffffffffffffffff1602179055509050507f653d56639fee6b566a5c804764e9689de38645f0b733df89a36a1b7b42173dd8836040516139eb9190616257565b60405180910390a1505050565b613a0133615852565b565b8060036007811115613a1857613a176161c7565b5b600760006005548152602001908152602001600020600b0160009054906101000a900460ff166007811115613a5057613a4f6161c7565b5b14613a5a57600080fd5b3480341015613a6857600080fd5b8233600060076000878152602001908152602001600020604051806101e001604052908160008201548152602001600182015481526020016002820160009054906101000a900473ffffffffffffffffffffffffffffffffffffffff1673ffffffffffffffffffffffffffffffffffffffff1673ffffffffffffffffffffffffffffffffffffffff1681526020016003820160009054906101000a900473ffffffffffffffffffffffffffffffffffffffff1673ffffffffffffffffffffffffffffffffffffffff1673ffffffffffffffffffffffffffffffffffffffff168152602001600482018054613b5b90616225565b80601f0160208091040260200160405190810160405280929190818152602001828054613b8790616225565b8015613bd45780601f10613ba957610100808354040283529160200191613bd4565b820191906000526020600020905b815481529060010190602001808311613bb757829003601f168201915b50505050508152602001600582018054613bed90616225565b80601f0160208091040260200160405190810160405280929190818152602001828054613c1990616225565b8015613c665780601f10613c3b57610100808354040283529160200191613c66565b820191906000526020600020905b815481529060010190602001808311613c4957829003601f168201915b50505050508152602001600682018054613c7f90616225565b80601f0160208091040260200160405190810160405280929190818152602001828054613cab90616225565b8015613cf85780601f10613ccd57610100808354040283529160200191613cf8565b820191906000526020600020905b815481529060010190602001808311613cdb57829003601f168201915b50505050508152602001600782018054613d1190616225565b80601f0160208091040260200160405190810160405280929190818152602001828054613d3d90616225565b8015613d8a5780601f10613d5f57610100808354040283529160200191613d8a565b820191906000526020600020905b815481529060010190602001808311613d6d57829003601f168201915b5050505050815260200160088201548152602001600982018054613dad90616225565b80601f0160208091040260200160405190810160405280929190818152602001828054613dd990616225565b8015613e265780601f10613dfb57610100808354040283529160200191613e26565b820191906000526020600020905b815481529060010190602001808311613e0957829003601f168201915b50505050508152602001600a8201548152602001600b820160009054906101000a900460ff166007811115613e5e57613e5d6161c7565b5b6007811115613e7057613e6f6161c7565b5b8152602001600b820160019054906101000a900473ffffffffffffffffffffffffffffffffffffffff1673ffffffffffffffffffffffffffffffffffffffff1673ffffffffffffffffffffffffffffffffffffffff168152602001600c820160009054906101000a900473ffffffffffffffffffffffffffffffffffffffff1673ffffffffffffffffffffffffffffffffffffffff1673ffffffffffffffffffffffffffffffffffffffff168152602001600d820160009054906101000a900473ffffffffffffffffffffffffffffffffffffffff1673ffffffffffffffffffffffffffffffffffffffff1673ffffffffffffffffffffffffffffffffffffffff1681525050905060008160400151905033826040019073ffffffffffffffffffffffffffffffffffffffff16908173ffffffffffffffffffffffffffffffffffffffff16815250503382610180019073ffffffffffffffffffffffffffffffffffffffff16908173ffffffffffffffffffffffffffffffffffffffff16815250506004826101600190600781111561400c5761400b6161c7565b5b908160078111156140205761401f6161c7565b5b815250508073ffffffffffffffffffffffffffffffffffffffff166108fc8361014001519081150290604051600060405180830381858888f1935050505015801561406f573d6000803e3d6000fd5b508160076000898152602001908152602001600020600082015181600001556020820151816001015560408201518160020160006101000a81548173ffffffffffffffffffffffffffffffffffffffff021916908373ffffffffffffffffffffffffffffffffffffffff16021790555060608201518160030160006101000a81548173ffffffffffffffffffffffffffffffffffffffff021916908373ffffffffffffffffffffffffffffffffffffffff1602179055506080820151816004019080519060200190614142929190615a53565b5060a082015181600501908051906020019061415f929190615a53565b5060c082015181600601908051906020019061417c929190615a53565b5060e0820151816007019080519060200190614199929190615a53565b5061010082015181600801556101208201518160090190805190602001906141c2929190615a53565b5061014082015181600a015561016082015181600b0160006101000a81548160ff021916908360078111156141fa576141f96161c7565b5b021790555061018082015181600b0160016101000a81548173ffffffffffffffffffffffffffffffffffffffff021916908373ffffffffffffffffffffffffffffffffffffffff1602179055506101a082015181600c0160006101000a81548173ffffffffffffffffffffffffffffffffffffffff021916908373ffffffffffffffffffffffffffffffffffffffff1602179055506101c082015181600d0160006101000a81548173ffffffffffffffffffffffffffffffffffffffff021916908373ffffffffffffffffffffffffffffffffffffffff1602179055509050507f92f64ca637d023f354075a4be751b169c1a8a9ccb6d33cdd0cb3520543995727876040516143099190616257565b60405180910390a15050600060076000848152602001908152602001600020600a015490506000813461433c91906162f7565b90508273ffffffffffffffffffffffffffffffffffffffff166108fc829081150290604051600060405180830381858888f19350505050158015614384573d6000803e3d6000fd5b5050505050505050565b614396612423565b61439f57600080fd5b6143a8816158ac565b50565b80600160078111156143c0576143bf6161c7565b5b600760006005548152602001908152602001600020600b0160009054906101000a900460ff1660078111156143f8576143f76161c7565b5b1461440257600080fd5b338073ffffffffffffffffffffffffffffffffffffffff163373ffffffffffffffffffffffffffffffffffffffff161461443b57600080fd5b600060076000858152602001908152602001600020604051806101e001604052908160008201548152602001600182015481526020016002820160009054906101000a900473ffffffffffffffffffffffffffffffffffffffff1673ffffffffffffffffffffffffffffffffffffffff1673ffffffffffffffffffffffffffffffffffffffff1681526020016003820160009054906101000a900473ffffffffffffffffffffffffffffffffffffffff1673ffffffffffffffffffffffffffffffffffffffff1673ffffffffffffffffffffffffffffffffffffffff16815260200160048201805461452c90616225565b80601f016020809104026020016040519081016040528092919081815260200182805461455890616225565b80156145a55780601f1061457a576101008083540402835291602001916145a5565b820191906000526020600020905b81548152906001019060200180831161458857829003601f168201915b505050505081526020016005820180546145be90616225565b80601f01602080910402602001604051908101604052809291908181526020018280546145ea90616225565b80156146375780601f1061460c57610100808354040283529160200191614637565b820191906000526020600020905b81548152906001019060200180831161461a57829003601f168201915b5050505050815260200160068201805461465090616225565b80601f016020809104026020016040519081016040528092919081815260200182805461467c90616225565b80156146c95780601f1061469e576101008083540402835291602001916146c9565b820191906000526020600020905b8154815290600101906020018083116146ac57829003601f168201915b505050505081526020016007820180546146e290616225565b80601f016020809104026020016040519081016040528092919081815260200182805461470e90616225565b801561475b5780601f106147305761010080835404028352916020019161475b565b820191906000526020600020905b81548152906001019060200180831161473e57829003601f168201915b505050505081526020016008820154815260200160098201805461477e90616225565b80601f01602080910402602001604051908101604052809291908181526020018280546147aa90616225565b80156147f75780601f106147cc576101008083540402835291602001916147f7565b820191906000526020600020905b8154815290600101906020018083116147da57829003601f168201915b50505050508152602001600a8201548152602001600b820160009054906101000a900460ff16600781111561482f5761482e6161c7565b5b6007811115614841576148406161c7565b5b8152602001600b820160019054906101000a900473ffffffffffffffffffffffffffffffffffffffff1673ffffffffffffffffffffffffffffffffffffffff1673ffffffffffffffffffffffffffffffffffffffff168152602001600c820160009054906101000a900473ffffffffffffffffffffffffffffffffffffffff1673ffffffffffffffffffffffffffffffffffffffff1673ffffffffffffffffffffffffffffffffffffffff168152602001600d820160009054906101000a900473ffffffffffffffffffffffffffffffffffffffff1673ffffffffffffffffffffffffffffffffffffffff1673ffffffffffffffffffffffffffffffffffffffff1681525050905060028161016001906007811115614963576149626161c7565b5b90816007811115614977576149766161c7565b5b815250508060076000868152602001908152602001600020600082015181600001556020820151816001015560408201518160020160006101000a81548173ffffffffffffffffffffffffffffffffffffffff021916908373ffffffffffffffffffffffffffffffffffffffff16021790555060608201518160030160006101000a81548173ffffffffffffffffffffffffffffffffffffffff021916908373ffffffffffffffffffffffffffffffffffffffff1602179055506080820151816004019080519060200190614a4d929190615a53565b5060a0820151816005019080519060200190614a6a929190615a53565b5060c0820151816006019080519060200190614a87929190615a53565b5060e0820151816007019080519060200190614aa4929190615a53565b506101008201518160080155610120820151816009019080519060200190614acd929190615a53565b5061014082015181600a015561016082015181600b0160006101000a81548160ff02191690836007811115614b0557614b046161c7565b5b021790555061018082015181600b0160016101000a81548173ffffffffffffffffffffffffffffffffffffffff021916908373ffffffffffffffffffffffffffffffffffffffff1602179055506101a082015181600c0160006101000a81548173ffffffffffffffffffffffffffffffffffffffff021916908373ffffffffffffffffffffffffffffffffffffffff1602179055506101c082015181600d0160006101000a81548173ffffffffffffffffffffffffffffffffffffffff021916908373ffffffffffffffffffffffffffffffffffffffff1602179055509050507f9b3b66e2380b690bae22c73ef1428fb0c91e72fe14a4b6defa13035214187aff84604051614c149190616257565b60405180910390a150505050565b8060046007811115614c3757614c366161c7565b5b600760006005548152602001908152602001600020600b0160009054906101000a900460ff166007811115614c6f57614c6e6161c7565b5b14614c7957600080fd5b338073ffffffffffffffffffffffffffffffffffffffff163373ffffffffffffffffffffffffffffffffffffffff1614614cb257600080fd5b600060076000858152602001908152602001600020604051806101e001604052908160008201548152602001600182015481526020016002820160009054906101000a900473ffffffffffffffffffffffffffffffffffffffff1673ffffffffffffffffffffffffffffffffffffffff1673ffffffffffffffffffffffffffffffffffffffff1681526020016003820160009054906101000a900473ffffffffffffffffffffffffffffffffffffffff1673ffffffffffffffffffffffffffffffffffffffff1673ffffffffffffffffffffffffffffffffffffffff168152602001600482018054614da390616225565b80601f0160208091040260200160405190810160405280929190818152602001828054614dcf90616225565b8015614e1c5780601f10614df157610100808354040283529160200191614e1c565b820191906000526020600020905b815481529060010190602001808311614dff57829003601f168201915b50505050508152602001600582018054614e3590616225565b80601f0160208091040260200160405190810160405280929190818152602001828054614e6190616225565b8015614eae5780601f10614e8357610100808354040283529160200191614eae565b820191906000526020600020905b815481529060010190602001808311614e9157829003601f168201915b50505050508152602001600682018054614ec790616225565b80601f0160208091040260200160405190810160405280929190818152602001828054614ef390616225565b8015614f405780601f10614f1557610100808354040283529160200191614f40565b820191906000526020600020905b815481529060010190602001808311614f2357829003601f168201915b50505050508152602001600782018054614f5990616225565b80601f0160208091040260200160405190810160405280929190818152602001828054614f8590616225565b8015614fd25780601f10614fa757610100808354040283529160200191614fd2565b820191906000526020600020905b815481529060010190602001808311614fb557829003601f168201915b5050505050815260200160088201548152602001600982018054614ff590616225565b80601f016020809104026020016040519081016040528092919081815260200182805461502190616225565b801561506e5780601f106150435761010080835404028352916020019161506e565b820191906000526020600020905b81548152906001019060200180831161505157829003601f168201915b50505050508152602001600a8201548152602001600b820160009054906101000a900460ff1660078111156150a6576150a56161c7565b5b60078111156150b8576150b76161c7565b5b8152602001600b820160019054906101000a900473ffffffffffffffffffffffffffffffffffffffff1673ffffffffffffffffffffffffffffffffffffffff1673ffffffffffffffffffffffffffffffffffffffff168152602001600c820160009054906101000a900473ffffffffffffffffffffffffffffffffffffffff1673ffffffffffffffffffffffffffffffffffffffff1673ffffffffffffffffffffffffffffffffffffffff168152602001600d820160009054906101000a900473ffffffffffffffffffffffffffffffffffffffff1673ffffffffffffffffffffffffffffffffffffffff1673ffffffffffffffffffffffffffffffffffffffff16815250509050600581610160019060078111156151da576151d96161c7565b5b908160078111156151ee576151ed6161c7565b5b815250508060076000868152602001908152602001600020600082015181600001556020820151816001015560408201518160020160006101000a81548173ffffffffffffffffffffffffffffffffffffffff021916908373ffffffffffffffffffffffffffffffffffffffff16021790555060608201518160030160006101000a81548173ffffffffffffffffffffffffffffffffffffffff021916908373ffffffffffffffffffffffffffffffffffffffff16021790555060808201518160040190805190602001906152c4929190615a53565b5060a08201518160050190805190602001906152e1929190615a53565b5060c08201518160060190805190602001906152fe929190615a53565b5060e082015181600701908051906020019061531b929190615a53565b506101008201518160080155610120820151816009019080519060200190615344929190615a53565b5061014082015181600a015561016082015181600b0160006101000a81548160ff0219169083600781111561537c5761537b6161c7565b5b021790555061018082015181600b0160016101000a81548173ffffffffffffffffffffffffffffffffffffffff021916908373ffffffffffffffffffffffffffffffffffffffff1602179055506101a082015181600c0160006101000a81548173ffffffffffffffffffffffffffffffffffffffff021916908373ffffffffffffffffffffffffffffffffffffffff1602179055506101c082015181600d0160006101000a81548173ffffffffffffffffffffffffffffffffffffffff021916908373ffffffffffffffffffffffffffffffffffffffff1602179055509050507ff00b9a5725b80c54016f42114f6ed7792d22eecb116011c4afac29c57bef6c958460405161548b9190616257565b60405180910390a150505050565b80600073ffffffffffffffffffffffffffffffffffffffff168173ffffffffffffffffffffffffffffffffffffffff1614156154d457600080fd5b6154de83836155a1565b156154e857600080fd5b60018360000160008473ffffffffffffffffffffffffffffffffffffffff1673ffffffffffffffffffffffffffffffffffffffff16815260200190815260200160002060006101000a81548160ff021916908315150217905550505050565b61555b81600361549990919063ffffffff16565b8073ffffffffffffffffffffffffffffffffffffffff167f28b26e7a3d20aedbc5f8f2ebf7da671c0491723a2b78f47a097b0e46dee0714260405160405180910390a250565b600081600073ffffffffffffffffffffffffffffffffffffffff168173ffffffffffffffffffffffffffffffffffffffff1614156155de57600080fd5b8360000160008473ffffffffffffffffffffffffffffffffffffffff1673ffffffffffffffffffffffffffffffffffffffff16815260200190815260200160002060009054906101000a900460ff1691505092915050565b61564a8160036159a690919063ffffffff16565b8073ffffffffffffffffffffffffffffffffffffffff167fe3f5ed5f263f1f01764a96edfc7d025f511ec5f7d180e8816908b78bcf74f09860405160405180910390a250565b6156a48160016159a690919063ffffffff16565b8073ffffffffffffffffffffffffffffffffffffffff167f126174f6cf49c81cdb4a9214c6b8f037bef55b4ec31e4fc776cea2a1c8a88d5960405160405180910390a250565b6156fe81600161549990919063ffffffff16565b8073ffffffffffffffffffffffffffffffffffffffff167fddbf200aa634dc3fb81cfd68583dd1040d1c751d335e1d86b631bde3e977fea860405160405180910390a250565b61575881600061549990919063ffffffff16565b8073ffffffffffffffffffffffffffffffffffffffff167f2e0ded4123377a3c2bc9a26f1717655a129e2f20752924d42e730ec89c83dbd060405160405180910390a250565b6157b28160006159a690919063ffffffff16565b8073ffffffffffffffffffffffffffffffffffffffff167fa5e0f060af304ab17dd418c7927e3da3ae7868189bf387aee09ab179ccc572f260405160405180910390a250565b61580c81600261549990919063ffffffff16565b8073ffffffffffffffffffffffffffffffffffffffff167f71ae26cad02663e3d92efd6ec56031a80d74a20c0ab4183faa8bf262261c9baa60405160405180910390a250565b6158668160026159a690919063ffffffff16565b8073ffffffffffffffffffffffffffffffffffffffff167fdb7176e79cffef81cb01767dd0447a0b24bb72ca9778d4b245581086b2a7e6db60405160405180910390a250565b600073ffffffffffffffffffffffffffffffffffffffff168173ffffffffffffffffffffffffffffffffffffffff1614156158e657600080fd5b8073ffffffffffffffffffffffffffffffffffffffff16600960009054906101000a900473ffffffffffffffffffffffffffffffffffffffff1673ffffffffffffffffffffffffffffffffffffffff167f5c486528ec3e3f0ea91181cff8116f02bfa350e03b8b6f12e00765adbb5af85c60405160405180910390a380600960006101000a81548173ffffffffffffffffffffffffffffffffffffffff021916908373ffffffffffffffffffffffffffffffffffffffff16021790555050565b80600073ffffffffffffffffffffffffffffffffffffffff168173ffffffffffffffffffffffffffffffffffffffff1614156159e157600080fd5b6159eb83836155a1565b6159f457600080fd5b60008360000160008473ffffffffffffffffffffffffffffffffffffffff1673ffffffffffffffffffffffffffffffffffffffff16815260200190815260200160002060006101000a81548160ff021916908315150217905550505050565b828054615a5f90616225565b90600052602060002090601f016020900481019282615a815760008555615ac8565b82601f10615a9a57805160ff1916838001178555615ac8565b82800160010185558215615ac8579182015b82811115615ac7578251825591602001919060010190615aac565b5b509050615ad59190615bcf565b5090565b604051806101e001604052806000815260200160008152602001600073ffffffffffffffffffffffffffffffffffffffff168152602001600073ffffffffffffffffffffffffffffffffffffffff1681526020016060815260200160608152602001606081526020016060815260200160008152602001606081526020016000815260200160006007811115615b7257615b716161c7565b5b8152602001600073ffffffffffffffffffffffffffffffffffffffff168152602001600073ffffffffffffffffffffffffffffffffffffffff168152602001600073ffffffffffffffffffffffffffffffffffffffff1681525090565b5b80821115615be8576000816000905550600101615bd0565b5090565b6000604051905090565b600080fd5b600080fd5b600073ffffffffffffffffffffffffffffffffffffffff82169050919050565b6000615c2b82615c00565b9050919050565b615c3b81615c20565b8114615c4657600080fd5b50565b600081359050615c5881615c32565b92915050565b600060208284031215615c7457615c73615bf6565b5b6000615c8284828501615c49565b91505092915050565b6000819050919050565b615c9e81615c8b565b8114615ca957600080fd5b50565b600081359050615cbb81615c95565b92915050565b60008060408385031215615cd857615cd7615bf6565b5b6000615ce685828601615cac565b9250506020615cf785828601615cac565b9150509250929050565b600060208284031215615d1757615d16615bf6565b5b6000615d2584828501615cac565b91505092915050565b60008115159050919050565b615d4381615d2e565b82525050565b6000602082019050615d5e6000830184615d3a565b92915050565b615d6d81615c8b565b82525050565b600081519050919050565b600082825260208201905092915050565b60005b83811015615dad578082015181840152602081019050615d92565b83811115615dbc576000848401525b50505050565b6000601f19601f8301169050919050565b6000615dde82615d73565b615de88185615d7e565b9350615df8818560208601615d8f565b615e0181615dc2565b840191505092915050565b615e1581615c20565b82525050565b600061012082019050615e31600083018c615d64565b615e3e602083018b615d64565b615e4b604083018a615d64565b8181036060830152615e5d8189615dd3565b9050615e6c6080830188615d64565b615e7960a0830187615d64565b615e8660c0830186615e0c565b615e9360e0830185615e0c565b615ea1610100830184615e0c565b9a9950505050505050505050565b600061010082019050615ec5600083018b615d64565b615ed2602083018a615d64565b615edf6040830189615e0c565b615eec6060830188615e0c565b8181036080830152615efe8187615dd3565b905081810360a0830152615f128186615dd3565b905081810360c0830152615f268185615dd3565b905081810360e0830152615f3a8184615dd3565b90509998505050505050505050565b600080fd5b600080fd5b7f4e487b7100000000000000000000000000000000000000000000000000000000600052604160045260246000fd5b615f8b82615dc2565b810181811067ffffffffffffffff82111715615faa57615fa9615f53565b5b80604052505050565b6000615fbd615bec565b9050615fc98282615f82565b919050565b600067ffffffffffffffff821115615fe957615fe8615f53565b5b615ff282615dc2565b9050602081019050919050565b82818337600083830152505050565b600061602161601c84615fce565b615fb3565b90508281526020810184848401111561603d5761603c615f4e565b5b616048848285615fff565b509392505050565b600082601f83011261606557616064615f49565b5b813561607584826020860161600e565b91505092915050565b600080600080600080600060e0888a03121561609d5761609c615bf6565b5b60006160ab8a828b01615cac565b97505060206160bc8a828b01615c49565b965050604088013567ffffffffffffffff8111156160dd576160dc615bfb565b5b6160e98a828b01616050565b955050606088013567ffffffffffffffff81111561610a57616109615bfb565b5b6161168a828b01616050565b945050608088013567ffffffffffffffff81111561613757616136615bfb565b5b6161438a828b01616050565b93505060a088013567ffffffffffffffff81111561616457616163615bfb565b5b6161708a828b01616050565b92505060c088013567ffffffffffffffff81111561619157616190615bfb565b5b61619d8a828b01616050565b91505092959891949750929550565b60006020820190506161c16000830184615e0c565b92915050565b7f4e487b7100000000000000000000000000000000000000000000000000000000600052602160045260246000fd5b7f4e487b7100000000000000000000000000000000000000000000000000000000600052602260045260246000fd5b6000600282049050600182168061623d57607f821691505b60208210811415616251576162506161f6565b5b50919050565b600060208201905061626c6000830184615d64565b92915050565b7f4e487b7100000000000000000000000000000000000000000000000000000000600052601160045260246000fd5b60006162ac82615c8b565b91506162b783615c8b565b9250827fffffffffffffffffffffffffffffffffffffffffffffffffffffffffffffffff038211156162ec576162eb616272565b5b828201905092915050565b600061630282615c8b565b915061630d83615c8b565b9250828210156163205761631f616272565b5b82820390509291505056fea2646970667358221220f1f7c743a4f20eeaaec1193d60c531b5a5e28791bb9b21d01ef163f39bf0587864736f6c634300080b0033",
  "immutableReferences": {},
  "source": "// SPDX-License-Identifier: MIT\npragma solidity ^0.8.0;\n\nimport \"../coffeebase/SupplyChain.sol\";\n\n/// Provides basic authorization control\ncontract Ownable is SupplyChain {\n    address private origOwner;\n\n    // Define an Event\n    event TransferOwnership(address indexed oldOwner, address indexed newOwner);\n\n    /// Assign the contract to an owner\n    constructor () {\n        origOwner = msg.sender;\n        emit TransferOwnership(address(0), origOwner);\n    }\n\n    /// Look up the address of the owner\n    function contractOwner() public view returns (address) {\n        return origOwner;\n    }\n\n    /// Define a function modifier 'onlyOwner'\n    modifier onlyContractOwner() {\n        require(isOwner());\n        _;\n    }\n\n    /// Check if the calling address is the owner of the contract\n    function isOwner() public view returns (bool) {\n        return msg.sender == origOwner;\n    }\n\n    /// Define a function to renounce ownerhip\n    function renounceOwnership() public onlyContractOwner {\n        emit TransferOwnership(origOwner, address(0));\n        origOwner = address(0);\n    }\n\n    /// Define a public function to transfer ownership\n    function transferOwnership(address newOwner) public onlyContractOwner {\n        _transferOwnership(newOwner);\n    }\n\n    /// Define an internal function to transfer ownership\n    function _transferOwnership(address newOwner) internal {\n        require(newOwner != address(0));\n        emit TransferOwnership(origOwner, newOwner);\n        origOwner = newOwner;\n    }\n}\n",
  "sourcePath": "/Users/orinamio/Desktop/Udacity Blockchain Nanodegree/projects/project_3/project-6/contracts/coffeecore/Ownable.sol",
  "compiler": {
    "name": "solc",
    "version": "0.8.11+commit.d7f03943.Emscripten.clang"
  },
  "schemaVersion": "3.4.4",
  "updatedAt": "2022-02-13T17:20:04.560Z",
  "devdoc": {
    "kind": "dev",
    "methods": {},
    "version": 1
  },
  "userdoc": {
    "kind": "user",
    "methods": {
      "constructor": {
        "notice": "Assign the contract to an owner"
      },
      "contractOwner()": {
        "notice": "Look up the address of the owner"
      },
      "isOwner()": {
        "notice": "Check if the calling address is the owner of the contract"
      },
      "renounceOwnership()": {
        "notice": "Define a function to renounce ownerhip"
      },
      "transferOwnership(address)": {
        "notice": "Define a public function to transfer ownership"
      }
    },
    "notice": "Provides basic authorization control",
    "version": 1
  }
}