{
  "contractName": "SupplyChain",
  "abi": [
    {
      "inputs": [],
      "stateMutability": "payable",
      "type": "constructor",
      "payable": true
    },
    {
      "anonymous": false,
      "inputs": [
        {
          "indexed": true,
          "internalType": "address",
          "name": "account",
          "type": "address"
        }
      ],
      "name": "ConsumerAdded",
      "type": "event"
    },
    {
      "anonymous": false,
      "inputs": [
        {
          "indexed": true,
          "internalType": "address",
          "name": "account",
          "type": "address"
        }
      ],
      "name": "ConsumerRemoved",
      "type": "event"
    },
    {
      "anonymous": false,
      "inputs": [
        {
          "indexed": true,
          "internalType": "address",
          "name": "account",
          "type": "address"
        }
      ],
      "name": "DistributorAdded",
      "type": "event"
    },
    {
      "anonymous": false,
      "inputs": [
        {
          "indexed": true,
          "internalType": "address",
          "name": "account",
          "type": "address"
        }
      ],
      "name": "DistributorRemoved",
      "type": "event"
    },
    {
      "anonymous": false,
      "inputs": [
        {
          "indexed": true,
          "internalType": "address",
          "name": "account",
          "type": "address"
        }
      ],
      "name": "FarmerAdded",
      "type": "event"
    },
    {
      "anonymous": false,
      "inputs": [
        {
          "indexed": true,
          "internalType": "address",
          "name": "account",
          "type": "address"
        }
      ],
      "name": "FarmerRemoved",
      "type": "event"
    },
    {
      "anonymous": false,
      "inputs": [
        {
          "indexed": false,
          "internalType": "uint256",
          "name": "upc",
          "type": "uint256"
        }
      ],
      "name": "ForSale",
      "type": "event"
    },
    {
      "anonymous": false,
      "inputs": [
        {
          "indexed": false,
          "internalType": "uint256",
          "name": "upc",
          "type": "uint256"
        }
      ],
      "name": "Harvested",
      "type": "event"
    },
    {
      "anonymous": false,
      "inputs": [
        {
          "indexed": false,
          "internalType": "uint256",
          "name": "upc",
          "type": "uint256"
        }
      ],
      "name": "Packed",
      "type": "event"
    },
    {
      "anonymous": false,
      "inputs": [
        {
          "indexed": false,
          "internalType": "uint256",
          "name": "upc",
          "type": "uint256"
        }
      ],
      "name": "Processed",
      "type": "event"
    },
    {
      "anonymous": false,
      "inputs": [
        {
          "indexed": false,
          "internalType": "uint256",
          "name": "upc",
          "type": "uint256"
        }
      ],
      "name": "Purchased",
      "type": "event"
    },
    {
      "anonymous": false,
      "inputs": [
        {
          "indexed": false,
          "internalType": "uint256",
          "name": "upc",
          "type": "uint256"
        }
      ],
      "name": "Received",
      "type": "event"
    },
    {
      "anonymous": false,
      "inputs": [
        {
          "indexed": true,
          "internalType": "address",
          "name": "account",
          "type": "address"
        }
      ],
      "name": "RetailerAdded",
      "type": "event"
    },
    {
      "anonymous": false,
      "inputs": [
        {
          "indexed": true,
          "internalType": "address",
          "name": "account",
          "type": "address"
        }
      ],
      "name": "RetailerRemoved",
      "type": "event"
    },
    {
      "anonymous": false,
      "inputs": [
        {
          "indexed": false,
          "internalType": "uint256",
          "name": "upc",
          "type": "uint256"
        }
      ],
      "name": "Shipped",
      "type": "event"
    },
    {
      "anonymous": false,
      "inputs": [
        {
          "indexed": false,
          "internalType": "uint256",
          "name": "upc",
          "type": "uint256"
        }
      ],
      "name": "Sold",
      "type": "event"
    },
    {
      "anonymous": false,
      "inputs": [
        {
          "indexed": true,
          "internalType": "address",
          "name": "oldOwner",
          "type": "address"
        },
        {
          "indexed": true,
          "internalType": "address",
          "name": "newOwner",
          "type": "address"
        }
      ],
      "name": "TransferOwnership",
      "type": "event"
    },
    {
      "inputs": [
        {
          "internalType": "address",
          "name": "account",
          "type": "address"
        }
      ],
      "name": "addConsumer",
      "outputs": [],
      "stateMutability": "nonpayable",
      "type": "function"
    },
    {
      "inputs": [
        {
          "internalType": "address",
          "name": "account",
          "type": "address"
        }
      ],
      "name": "addDistributor",
      "outputs": [],
      "stateMutability": "nonpayable",
      "type": "function"
    },
    {
      "inputs": [
        {
          "internalType": "address",
          "name": "account",
          "type": "address"
        }
      ],
      "name": "addFarmer",
      "outputs": [],
      "stateMutability": "nonpayable",
      "type": "function"
    },
    {
      "inputs": [
        {
          "internalType": "address",
          "name": "account",
          "type": "address"
        }
      ],
      "name": "addRetailer",
      "outputs": [],
      "stateMutability": "nonpayable",
      "type": "function"
    },
    {
      "inputs": [
        {
          "internalType": "address",
          "name": "account",
          "type": "address"
        }
      ],
      "name": "isConsumer",
      "outputs": [
        {
          "internalType": "bool",
          "name": "",
          "type": "bool"
        }
      ],
      "stateMutability": "view",
      "type": "function",
      "constant": true
    },
    {
      "inputs": [
        {
          "internalType": "address",
          "name": "account",
          "type": "address"
        }
      ],
      "name": "isDistributor",
      "outputs": [
        {
          "internalType": "bool",
          "name": "",
          "type": "bool"
        }
      ],
      "stateMutability": "view",
      "type": "function",
      "constant": true
    },
    {
      "inputs": [
        {
          "internalType": "address",
          "name": "account",
          "type": "address"
        }
      ],
      "name": "isFarmer",
      "outputs": [
        {
          "internalType": "bool",
          "name": "",
          "type": "bool"
        }
      ],
      "stateMutability": "view",
      "type": "function",
      "constant": true
    },
    {
      "inputs": [
        {
          "internalType": "address",
          "name": "account",
          "type": "address"
        }
      ],
      "name": "isRetailer",
      "outputs": [
        {
          "internalType": "bool",
          "name": "",
          "type": "bool"
        }
      ],
      "stateMutability": "view",
      "type": "function",
      "constant": true
    },
    {
      "inputs": [],
      "name": "renounceConsumer",
      "outputs": [],
      "stateMutability": "nonpayable",
      "type": "function"
    },
    {
      "inputs": [],
      "name": "renounceDistributor",
      "outputs": [],
      "stateMutability": "nonpayable",
      "type": "function"
    },
    {
      "inputs": [],
      "name": "renounceFarmer",
      "outputs": [],
      "stateMutability": "nonpayable",
      "type": "function"
    },
    {
      "inputs": [],
      "name": "renounceOwnership",
      "outputs": [],
      "stateMutability": "nonpayable",
      "type": "function"
    },
    {
      "inputs": [],
      "name": "renounceRetailer",
      "outputs": [],
      "stateMutability": "nonpayable",
      "type": "function"
    },
    {
      "inputs": [
        {
          "internalType": "address",
          "name": "newOwner",
          "type": "address"
        }
      ],
      "name": "transferOwnership",
      "outputs": [],
      "stateMutability": "nonpayable",
      "type": "function"
    },
    {
      "inputs": [],
      "name": "kill",
      "outputs": [],
      "stateMutability": "nonpayable",
      "type": "function"
    },
    {
      "inputs": [
        {
          "internalType": "uint256",
          "name": "_upc",
          "type": "uint256"
        },
        {
          "internalType": "address",
          "name": "_originFarmerID",
          "type": "address"
        },
        {
          "internalType": "string",
          "name": "_originFarmName",
          "type": "string"
        },
        {
          "internalType": "string",
          "name": "_originFarmInformation",
          "type": "string"
        },
        {
          "internalType": "string",
          "name": "_originFarmLatitude",
          "type": "string"
        },
        {
          "internalType": "string",
          "name": "_originFarmLongitude",
          "type": "string"
        },
        {
          "internalType": "string",
          "name": "_productNotes",
          "type": "string"
        }
      ],
      "name": "harvestItem",
      "outputs": [],
      "stateMutability": "nonpayable",
      "type": "function"
    },
    {
      "inputs": [
        {
          "internalType": "uint256",
          "name": "_upc",
          "type": "uint256"
        }
      ],
      "name": "processItem",
      "outputs": [],
      "stateMutability": "nonpayable",
      "type": "function"
    },
    {
      "inputs": [
        {
          "internalType": "uint256",
          "name": "_upc",
          "type": "uint256"
        }
      ],
      "name": "packItem",
      "outputs": [],
      "stateMutability": "nonpayable",
      "type": "function"
    },
    {
      "inputs": [
        {
          "internalType": "uint256",
          "name": "_upc",
          "type": "uint256"
        },
        {
          "internalType": "uint256",
          "name": "_price",
          "type": "uint256"
        }
      ],
      "name": "sellItem",
      "outputs": [],
      "stateMutability": "nonpayable",
      "type": "function"
    },
    {
      "inputs": [
        {
          "internalType": "uint256",
          "name": "_upc",
          "type": "uint256"
        }
      ],
      "name": "buyItem",
      "outputs": [],
      "stateMutability": "payable",
      "type": "function",
      "payable": true
    },
    {
      "inputs": [
        {
          "internalType": "uint256",
          "name": "_upc",
          "type": "uint256"
        }
      ],
      "name": "shipItem",
      "outputs": [],
      "stateMutability": "nonpayable",
      "type": "function"
    },
    {
      "inputs": [
        {
          "internalType": "uint256",
          "name": "_upc",
          "type": "uint256"
        }
      ],
      "name": "receiveItem",
      "outputs": [],
      "stateMutability": "nonpayable",
      "type": "function"
    },
    {
      "inputs": [
        {
          "internalType": "uint256",
          "name": "_upc",
          "type": "uint256"
        }
      ],
      "name": "purchaseItem",
      "outputs": [],
      "stateMutability": "nonpayable",
      "type": "function"
    },
    {
      "inputs": [
        {
          "internalType": "uint256",
          "name": "_upc",
          "type": "uint256"
        }
      ],
      "name": "fetchItemBufferOne",
      "outputs": [
        {
          "internalType": "uint256",
          "name": "itemSKU",
          "type": "uint256"
        },
        {
          "internalType": "uint256",
          "name": "itemUPC",
          "type": "uint256"
        },
        {
          "internalType": "address",
          "name": "ownerID",
          "type": "address"
        },
        {
          "internalType": "address",
          "name": "originFarmerID",
          "type": "address"
        },
        {
          "internalType": "string",
          "name": "originFarmName",
          "type": "string"
        },
        {
          "internalType": "string",
          "name": "originFarmInformation",
          "type": "string"
        },
        {
          "internalType": "string",
          "name": "originFarmLatitude",
          "type": "string"
        },
        {
          "internalType": "string",
          "name": "originFarmLongitude",
          "type": "string"
        }
      ],
      "stateMutability": "view",
      "type": "function",
      "constant": true
    },
    {
      "inputs": [
        {
          "internalType": "uint256",
          "name": "_upc",
          "type": "uint256"
        }
      ],
      "name": "fetchItemBufferTwo",
      "outputs": [
        {
          "internalType": "uint256",
          "name": "itemSKU",
          "type": "uint256"
        },
        {
          "internalType": "uint256",
          "name": "itemUPC",
          "type": "uint256"
        },
        {
          "internalType": "uint256",
          "name": "productID",
          "type": "uint256"
        },
        {
          "internalType": "string",
          "name": "productNotes",
          "type": "string"
        },
        {
          "internalType": "uint256",
          "name": "productPrice",
          "type": "uint256"
        },
        {
          "internalType": "uint256",
          "name": "itemState",
          "type": "uint256"
        },
        {
          "internalType": "address",
          "name": "distributorID",
          "type": "address"
        },
        {
          "internalType": "address",
          "name": "retailerID",
          "type": "address"
        },
        {
          "internalType": "address",
          "name": "consumerID",
          "type": "address"
        }
      ],
      "stateMutability": "view",
      "type": "function",
      "constant": true
    }
  ],
  "bytecode": "0x608060405262000015336200015560201b60201c565b6200002633620001b660201b60201c565b62000037336200021760201b60201c565b62000048336200027860201b60201c565b33600460006101000a81548173ffffffffffffffffffffffffffffffffffffffff021916908373ffffffffffffffffffffffffffffffffffffffff160217905550600460009054906101000a900473ffffffffffffffffffffffffffffffffffffffff1673ffffffffffffffffffffffffffffffffffffffff16600073ffffffffffffffffffffffffffffffffffffffff167f5c486528ec3e3f0ea91181cff8116f02bfa350e03b8b6f12e00765adbb5af85c60405160405180910390a333600660006101000a81548173ffffffffffffffffffffffffffffffffffffffff021916908373ffffffffffffffffffffffffffffffffffffffff160217905550600160078190555062000427565b62000170816000620002d960201b62002ee11790919060201c565b8073ffffffffffffffffffffffffffffffffffffffff167f2e0ded4123377a3c2bc9a26f1717655a129e2f20752924d42e730ec89c83dbd060405160405180910390a250565b620001d1816001620002d960201b62002ee11790919060201c565b8073ffffffffffffffffffffffffffffffffffffffff167fddbf200aa634dc3fb81cfd68583dd1040d1c751d335e1d86b631bde3e977fea860405160405180910390a250565b62000232816002620002d960201b62002ee11790919060201c565b8073ffffffffffffffffffffffffffffffffffffffff167f71ae26cad02663e3d92efd6ec56031a80d74a20c0ab4183faa8bf262261c9baa60405160405180910390a250565b62000293816003620002d960201b62002ee11790919060201c565b8073ffffffffffffffffffffffffffffffffffffffff167f28b26e7a3d20aedbc5f8f2ebf7da671c0491723a2b78f47a097b0e46dee0714260405160405180910390a250565b80600073ffffffffffffffffffffffffffffffffffffffff168173ffffffffffffffffffffffffffffffffffffffff1614156200031557600080fd5b6200032783836200039160201b60201c565b156200033257600080fd5b60018360000160008473ffffffffffffffffffffffffffffffffffffffff1673ffffffffffffffffffffffffffffffffffffffff16815260200190815260200160002060006101000a81548160ff021916908315150217905550505050565b600081600073ffffffffffffffffffffffffffffffffffffffff168173ffffffffffffffffffffffffffffffffffffffff161415620003cf57600080fd5b8360000160008473ffffffffffffffffffffffffffffffffffffffff1673ffffffffffffffffffffffffffffffffffffffff16815260200190815260200160002060009054906101000a900460ff1691505092915050565b61415580620004376000396000f3fe6080604052600436106101665760003560e01c806380fc0ce4116100d1578063bdd8a6a81161008a578063e7fb74c711610064578063e7fb74c7146104e3578063f2fde38b146104ff578063f30fc48014610528578063f61c899a1461055157610166565b8063bdd8a6a81461047a578063d38ea5bf146104a3578063db0e6a2f146104cc57610166565b806380fc0ce41461035a578063834ff739146103715780638ec4f505146103ae5780638f0c86fa146103d7578063a26be99914610414578063b94290691461043d57610166565b8063644241db11610123578063644241db1461025157806366225ff914610268578063715018a6146102ad5780637250e224146102c457806377c45913146102ed57806380c3f96d1461033157610166565b8063112940f91461016b5780632d9235611461019457806341c0e1b5146101bd57806349dae766146101d45780635da09b88146101fd57806361e6982d1461023a575b600080fd5b34801561017757600080fd5b50610192600480360381019061018d91906136a6565b61057a565b005b3480156101a057600080fd5b506101bb60048036038101906101b69190613709565b610590565b005b3480156101c957600080fd5b506101d2610a38565b005b3480156101e057600080fd5b506101fb60048036038101906101f69190613749565b610acb565b005b34801561020957600080fd5b50610224600480360381019061021f91906136a6565b610f67565b6040516102319190613791565b60405180910390f35b34801561024657600080fd5b5061024f610f84565b005b34801561025d57600080fd5b50610266610f8f565b005b34801561027457600080fd5b5061028f600480360381019061028a9190613749565b610f9a565b6040516102a499989796959493929190613863565b60405180910390f35b3480156102b957600080fd5b506102c2611094565b005b3480156102d057600080fd5b506102eb60048036038101906102e691906136a6565b6111af565b005b3480156102f957600080fd5b50610314600480360381019061030f9190613749565b6111cd565b6040516103289897969594939291906138f7565b60405180910390f35b34801561033d57600080fd5b50610358600480360381019061035391906136a6565b6112a3565b005b34801561036657600080fd5b5061036f6112c1565b005b34801561037d57600080fd5b50610398600480360381019061039391906136a6565b6112cc565b6040516103a59190613791565b60405180910390f35b3480156103ba57600080fd5b506103d560048036038101906103d091906136a6565b6112e9565b005b3480156103e357600080fd5b506103fe60048036038101906103f991906136a6565b6112ff565b60405161040b9190613791565b60405180910390f35b34801561042057600080fd5b5061043b60048036038101906104369190613749565b61131c565b005b34801561044957600080fd5b50610464600480360381019061045f91906136a6565b61177d565b6040516104719190613791565b60405180910390f35b34801561048657600080fd5b506104a1600480360381019061049c9190613ac6565b61179a565b005b3480156104af57600080fd5b506104ca60048036038101906104c59190613749565b611b75565b005b3480156104d857600080fd5b506104e1611fd6565b005b6104fd60048036038101906104f89190613749565b611fe1565b005b34801561050b57600080fd5b50610526600480360381019061052191906136a6565b612531565b005b34801561053457600080fd5b5061054f600480360381019061054a9190613749565b612597565b005b34801561055d57600080fd5b5061057860048036038101906105739190613749565b612a33565b005b610583336112cc565b5061058d81612f8f565b50565b600573__Coffee________________________________633cdc662b9091846040518363ffffffff1660e01b81526004016105cc929190613c0a565b602060405180830381865af41580156105e9573d6000803e3d6000fd5b505050506040513d601f19601f8201168201806040525081019061060d9190613c48565b8073ffffffffffffffffffffffffffffffffffffffff163373ffffffffffffffffffffffffffffffffffffffff161461064557600080fd5b600573__Coffee________________________________639a5e8a009091856040518363ffffffff1660e01b8152600401610681929190613c0a565b602060405180830381865af415801561069e573d6000803e3d6000fd5b505050506040513d601f19601f820116820180604052508101906106c29190613ca1565b6106cb57600080fd5b6000600573__Coffee________________________________63be6f635f9091866040518363ffffffff1660e01b8152600401610709929190613c0a565b600060405180830381865af4158015610726573d6000803e3d6000fd5b505050506040513d6000823e3d601f19601f8201168201806040525081019061074f9190613f72565b90506003816101600190600781111561076b5761076a613fbb565b5b9081600781111561077f5761077e613fbb565b5b8152505082816101400181815250508060056000016000868152602001908152602001600020600082015181600001556020820151816001015560408201518160020160006101000a81548173ffffffffffffffffffffffffffffffffffffffff021916908373ffffffffffffffffffffffffffffffffffffffff16021790555060608201518160030160006101000a81548173ffffffffffffffffffffffffffffffffffffffff021916908373ffffffffffffffffffffffffffffffffffffffff160217905550608082015181600401908051906020019061086392919061349b565b5060a082015181600501908051906020019061088092919061349b565b5060c082015181600601908051906020019061089d92919061349b565b5060e08201518160070190805190602001906108ba92919061349b565b5061010082015181600801556101208201518160090190805190602001906108e392919061349b565b5061014082015181600a015561016082015181600b0160006101000a81548160ff0219169083600781111561091b5761091a613fbb565b5b021790555061018082015181600b0160016101000a81548173ffffffffffffffffffffffffffffffffffffffff021916908373ffffffffffffffffffffffffffffffffffffffff1602179055506101a082015181600c0160006101000a81548173ffffffffffffffffffffffffffffffffffffffff021916908373ffffffffffffffffffffffffffffffffffffffff1602179055506101c082015181600d0160006101000a81548173ffffffffffffffffffffffffffffffffffffffff021916908373ffffffffffffffffffffffffffffffffffffffff1602179055509050507fa96ae0fc3224ebd79eebfe54bd130cc9cb94416cddd1f2386115e00b7253246884604051610a2a9190613fea565b60405180910390a150505050565b600660009054906101000a900473ffffffffffffffffffffffffffffffffffffffff1673ffffffffffffffffffffffffffffffffffffffff163373ffffffffffffffffffffffffffffffffffffffff161415610ac957600660009054906101000a900473ffffffffffffffffffffffffffffffffffffffff1673ffffffffffffffffffffffffffffffffffffffff16ff5b565b600573__Coffee________________________________633cdc662b9091836040518363ffffffff1660e01b8152600401610b07929190613c0a565b602060405180830381865af4158015610b24573d6000803e3d6000fd5b505050506040513d601f19601f82011682018060405250810190610b489190613c48565b8073ffffffffffffffffffffffffffffffffffffffff163373ffffffffffffffffffffffffffffffffffffffff1614610b8057600080fd5b600573__Coffee________________________________63f2248c7b9091846040518363ffffffff1660e01b8152600401610bbc929190613c0a565b602060405180830381865af4158015610bd9573d6000803e3d6000fd5b505050506040513d601f19601f82011682018060405250810190610bfd9190613ca1565b610c0657600080fd5b6000600573__Coffee________________________________63be6f635f9091856040518363ffffffff1660e01b8152600401610c44929190613c0a565b600060405180830381865af4158015610c61573d6000803e3d6000fd5b505050506040513d6000823e3d601f19601f82011682018060405250810190610c8a9190613f72565b905060018161016001906007811115610ca657610ca5613fbb565b5b90816007811115610cba57610cb9613fbb565b5b815250508060056000016000858152602001908152602001600020600082015181600001556020820151816001015560408201518160020160006101000a81548173ffffffffffffffffffffffffffffffffffffffff021916908373ffffffffffffffffffffffffffffffffffffffff16021790555060608201518160030160006101000a81548173ffffffffffffffffffffffffffffffffffffffff021916908373ffffffffffffffffffffffffffffffffffffffff1602179055506080820151816004019080519060200190610d9392919061349b565b5060a0820151816005019080519060200190610db092919061349b565b5060c0820151816006019080519060200190610dcd92919061349b565b5060e0820151816007019080519060200190610dea92919061349b565b506101008201518160080155610120820151816009019080519060200190610e1392919061349b565b5061014082015181600a015561016082015181600b0160006101000a81548160ff02191690836007811115610e4b57610e4a613fbb565b5b021790555061018082015181600b0160016101000a81548173ffffffffffffffffffffffffffffffffffffffff021916908373ffffffffffffffffffffffffffffffffffffffff1602179055506101a082015181600c0160006101000a81548173ffffffffffffffffffffffffffffffffffffffff021916908373ffffffffffffffffffffffffffffffffffffffff1602179055506101c082015181600d0160006101000a81548173ffffffffffffffffffffffffffffffffffffffff021916908373ffffffffffffffffffffffffffffffffffffffff1602179055509050507f5afe3b1bf87069693c075da5c22a98d63d1aef98a30dbbe538d0781a98b77ee583604051610f5a9190613fea565b60405180910390a1505050565b6000610f7d826002612fe990919063ffffffff16565b9050919050565b610f8d3361307e565b565b610f98336130d8565b565b60008060006060600080600080600080600573__Coffee________________________________63be6f635f90918d6040518363ffffffff1660e01b8152600401610fe6929190613c0a565b600060405180830381865af4158015611003573d6000803e3d6000fd5b505050506040513d6000823e3d601f19601f8201168201806040525081019061102c9190613f72565b90508060000151995080602001519850806101000151975080610120015196508061014001519550806101600151600781111561106c5761106b613fbb565b5b94508061018001519350806101a001519250806101c001519150509193959799909294969850565b600460009054906101000a900473ffffffffffffffffffffffffffffffffffffffff1673ffffffffffffffffffffffffffffffffffffffff163373ffffffffffffffffffffffffffffffffffffffff16146110ee57600080fd5b600073ffffffffffffffffffffffffffffffffffffffff16600460009054906101000a900473ffffffffffffffffffffffffffffffffffffffff1673ffffffffffffffffffffffffffffffffffffffff167f5c486528ec3e3f0ea91181cff8116f02bfa350e03b8b6f12e00765adbb5af85c60405160405180910390a36000600460006101000a81548173ffffffffffffffffffffffffffffffffffffffff021916908373ffffffffffffffffffffffffffffffffffffffff160217905550565b6111b8336112ff565b6111c157600080fd5b6111ca81613132565b50565b6000806000806060806060806000600573__Coffee________________________________63be6f635f90918c6040518363ffffffff1660e01b8152600401611217929190613c0a565b600060405180830381865af4158015611234573d6000803e3d6000fd5b505050506040513d6000823e3d601f19601f8201168201806040525081019061125d9190613f72565b905080600001519850806020015197508060400151965080606001519550806080015194508060a0015193508060c0015192508060e00151915050919395975091939597565b6112ac3361177d565b6112b557600080fd5b6112be8161318c565b50565b6112ca336131e6565b565b60006112e2826003612fe990919063ffffffff16565b9050919050565b6112f233610f67565b506112fc81613240565b50565b6000611315826001612fe990919063ffffffff16565b9050919050565b61132533610f67565b50600573__Coffee________________________________63be62f83b9091836040518363ffffffff1660e01b8152600401611362929190613c0a565b602060405180830381865af415801561137f573d6000803e3d6000fd5b505050506040513d601f19601f820116820180604052508101906113a39190613ca1565b6113ac57600080fd5b6000600573__Coffee________________________________63be6f635f9091846040518363ffffffff1660e01b81526004016113ea929190613c0a565b600060405180830381865af4158015611407573d6000803e3d6000fd5b505050506040513d6000823e3d601f19601f820116820180604052508101906114309190613f72565b905033816040019073ffffffffffffffffffffffffffffffffffffffff16908173ffffffffffffffffffffffffffffffffffffffff168152505033816101a0019073ffffffffffffffffffffffffffffffffffffffff16908173ffffffffffffffffffffffffffffffffffffffff1681525050600681610160019060078111156114bd576114bc613fbb565b5b908160078111156114d1576114d0613fbb565b5b815250508060056000016000848152602001908152602001600020600082015181600001556020820151816001015560408201518160020160006101000a81548173ffffffffffffffffffffffffffffffffffffffff021916908373ffffffffffffffffffffffffffffffffffffffff16021790555060608201518160030160006101000a81548173ffffffffffffffffffffffffffffffffffffffff021916908373ffffffffffffffffffffffffffffffffffffffff16021790555060808201518160040190805190602001906115aa92919061349b565b5060a08201518160050190805190602001906115c792919061349b565b5060c08201518160060190805190602001906115e492919061349b565b5060e082015181600701908051906020019061160192919061349b565b50610100820151816008015561012082015181600901908051906020019061162a92919061349b565b5061014082015181600a015561016082015181600b0160006101000a81548160ff0219169083600781111561166257611661613fbb565b5b021790555061018082015181600b0160016101000a81548173ffffffffffffffffffffffffffffffffffffffff021916908373ffffffffffffffffffffffffffffffffffffffff1602179055506101a082015181600c0160006101000a81548173ffffffffffffffffffffffffffffffffffffffff021916908373ffffffffffffffffffffffffffffffffffffffff1602179055506101c082015181600d0160006101000a81548173ffffffffffffffffffffffffffffffffffffffff021916908373ffffffffffffffffffffffffffffffffffffffff1602179055509050507fa8142743f8f70a4c26f3691cf4ed59718381fb2f18070ec52be1f1022d855557826040516117719190613fea565b60405180910390a15050565b6000611793826000612fe990919063ffffffff16565b9050919050565b6117a33361177d565b6117ac57600080fd5b6117b4613521565b6007548160000181815250508781602001818152505086816040019073ffffffffffffffffffffffffffffffffffffffff16908173ffffffffffffffffffffffffffffffffffffffff168152505086816060019073ffffffffffffffffffffffffffffffffffffffff16908173ffffffffffffffffffffffffffffffffffffffff1681525050858160800181905250848160a00181905250838160c00181905250828160e001819052506000816101600190600781111561187857611877613fbb565b5b9081600781111561188c5761188b613fbb565b5b815250508760075461189e9190614034565b816101000181815250508181610120018190525080600560000160008a8152602001908152602001600020600082015181600001556020820151816001015560408201518160020160006101000a81548173ffffffffffffffffffffffffffffffffffffffff021916908373ffffffffffffffffffffffffffffffffffffffff16021790555060608201518160030160006101000a81548173ffffffffffffffffffffffffffffffffffffffff021916908373ffffffffffffffffffffffffffffffffffffffff160217905550608082015181600401908051906020019061198792919061349b565b5060a08201518160050190805190602001906119a492919061349b565b5060c08201518160060190805190602001906119c192919061349b565b5060e08201518160070190805190602001906119de92919061349b565b506101008201518160080155610120820151816009019080519060200190611a0792919061349b565b5061014082015181600a015561016082015181600b0160006101000a81548160ff02191690836007811115611a3f57611a3e613fbb565b5b021790555061018082015181600b0160016101000a81548173ffffffffffffffffffffffffffffffffffffffff021916908373ffffffffffffffffffffffffffffffffffffffff1602179055506101a082015181600c0160006101000a81548173ffffffffffffffffffffffffffffffffffffffff021916908373ffffffffffffffffffffffffffffffffffffffff1602179055506101c082015181600d0160006101000a81548173ffffffffffffffffffffffffffffffffffffffff021916908373ffffffffffffffffffffffffffffffffffffffff1602179055509050506001600754611b2e9190614034565b6007819055507f8e55ccfc9778ff8eba1646d765cf1982537ce0f9257054a17b48aad74525018388604051611b639190613fea565b60405180910390a15050505050505050565b611b7e336112cc565b50600573__Coffee________________________________6318e8ba919091836040518363ffffffff1660e01b8152600401611bbb929190613c0a565b602060405180830381865af4158015611bd8573d6000803e3d6000fd5b505050506040513d601f19601f82011682018060405250810190611bfc9190613ca1565b611c0557600080fd5b6000600573__Coffee________________________________63be6f635f9091846040518363ffffffff1660e01b8152600401611c43929190613c0a565b600060405180830381865af4158015611c60573d6000803e3d6000fd5b505050506040513d6000823e3d601f19601f82011682018060405250810190611c899190613f72565b905033816040019073ffffffffffffffffffffffffffffffffffffffff16908173ffffffffffffffffffffffffffffffffffffffff168152505033816101c0019073ffffffffffffffffffffffffffffffffffffffff16908173ffffffffffffffffffffffffffffffffffffffff168152505060078161016001906007811115611d1657611d15613fbb565b5b90816007811115611d2a57611d29613fbb565b5b815250508060056000016000848152602001908152602001600020600082015181600001556020820151816001015560408201518160020160006101000a81548173ffffffffffffffffffffffffffffffffffffffff021916908373ffffffffffffffffffffffffffffffffffffffff16021790555060608201518160030160006101000a81548173ffffffffffffffffffffffffffffffffffffffff021916908373ffffffffffffffffffffffffffffffffffffffff1602179055506080820151816004019080519060200190611e0392919061349b565b5060a0820151816005019080519060200190611e2092919061349b565b5060c0820151816006019080519060200190611e3d92919061349b565b5060e0820151816007019080519060200190611e5a92919061349b565b506101008201518160080155610120820151816009019080519060200190611e8392919061349b565b5061014082015181600a015561016082015181600b0160006101000a81548160ff02191690836007811115611ebb57611eba613fbb565b5b021790555061018082015181600b0160016101000a81548173ffffffffffffffffffffffffffffffffffffffff021916908373ffffffffffffffffffffffffffffffffffffffff1602179055506101a082015181600c0160006101000a81548173ffffffffffffffffffffffffffffffffffffffff021916908373ffffffffffffffffffffffffffffffffffffffff1602179055506101c082015181600d0160006101000a81548173ffffffffffffffffffffffffffffffffffffffff021916908373ffffffffffffffffffffffffffffffffffffffff1602179055509050507f653d56639fee6b566a5c804764e9689de38645f0b733df89a36a1b7b42173dd882604051611fca9190613fea565b60405180910390a15050565b611fdf3361329a565b565b611fea336112ff565b611ff357600080fd5b600573__Coffee________________________________6388b4c33f9091836040518363ffffffff1660e01b815260040161202f929190613c0a565b602060405180830381865af415801561204c573d6000803e3d6000fd5b505050506040513d601f19601f820116820180604052508101906120709190613ca1565b61207957600080fd5b60056000016000828152602001908152602001600020600a015434101561209f57600080fd5b3373ffffffffffffffffffffffffffffffffffffffff166108fc60056000016000848152602001908152602001600020600a0154346120de919061408a565b9081150290604051600060405180830381858888f19350505050158015612109573d6000803e3d6000fd5b506000600573__Coffee________________________________63be6f635f9091846040518363ffffffff1660e01b8152600401612148929190613c0a565b600060405180830381865af4158015612165573d6000803e3d6000fd5b505050506040513d6000823e3d601f19601f8201168201806040525081019061218e9190613f72565b905060008160400151905033826040019073ffffffffffffffffffffffffffffffffffffffff16908173ffffffffffffffffffffffffffffffffffffffff16815250503382610180019073ffffffffffffffffffffffffffffffffffffffff16908173ffffffffffffffffffffffffffffffffffffffff16815250506004826101600190600781111561222457612223613fbb565b5b9081600781111561223857612237613fbb565b5b815250508073ffffffffffffffffffffffffffffffffffffffff166108fc8361014001519081150290604051600060405180830381858888f19350505050158015612287573d6000803e3d6000fd5b508160056000016000858152602001908152602001600020600082015181600001556020820151816001015560408201518160020160006101000a81548173ffffffffffffffffffffffffffffffffffffffff021916908373ffffffffffffffffffffffffffffffffffffffff16021790555060608201518160030160006101000a81548173ffffffffffffffffffffffffffffffffffffffff021916908373ffffffffffffffffffffffffffffffffffffffff160217905550608082015181600401908051906020019061235d92919061349b565b5060a082015181600501908051906020019061237a92919061349b565b5060c082015181600601908051906020019061239792919061349b565b5060e08201518160070190805190602001906123b492919061349b565b5061010082015181600801556101208201518160090190805190602001906123dd92919061349b565b5061014082015181600a015561016082015181600b0160006101000a81548160ff0219169083600781111561241557612414613fbb565b5b021790555061018082015181600b0160016101000a81548173ffffffffffffffffffffffffffffffffffffffff021916908373ffffffffffffffffffffffffffffffffffffffff1602179055506101a082015181600c0160006101000a81548173ffffffffffffffffffffffffffffffffffffffff021916908373ffffffffffffffffffffffffffffffffffffffff1602179055506101c082015181600d0160006101000a81548173ffffffffffffffffffffffffffffffffffffffff021916908373ffffffffffffffffffffffffffffffffffffffff1602179055509050507f92f64ca637d023f354075a4be751b169c1a8a9ccb6d33cdd0cb3520543995727836040516125249190613fea565b60405180910390a1505050565b600460009054906101000a900473ffffffffffffffffffffffffffffffffffffffff1673ffffffffffffffffffffffffffffffffffffffff163373ffffffffffffffffffffffffffffffffffffffff161461258b57600080fd5b612594816132f4565b50565b600573__Coffee________________________________633cdc662b9091836040518363ffffffff1660e01b81526004016125d3929190613c0a565b602060405180830381865af41580156125f0573d6000803e3d6000fd5b505050506040513d601f19601f820116820180604052508101906126149190613c48565b8073ffffffffffffffffffffffffffffffffffffffff163373ffffffffffffffffffffffffffffffffffffffff161461264c57600080fd5b600573__Coffee________________________________6304758da49091846040518363ffffffff1660e01b8152600401612688929190613c0a565b602060405180830381865af41580156126a5573d6000803e3d6000fd5b505050506040513d601f19601f820116820180604052508101906126c99190613ca1565b6126d257600080fd5b6000600573__Coffee________________________________63be6f635f9091856040518363ffffffff1660e01b8152600401612710929190613c0a565b600060405180830381865af415801561272d573d6000803e3d6000fd5b505050506040513d6000823e3d601f19601f820116820180604052508101906127569190613f72565b90506002816101600190600781111561277257612771613fbb565b5b9081600781111561278657612785613fbb565b5b815250508060056000016000858152602001908152602001600020600082015181600001556020820151816001015560408201518160020160006101000a81548173ffffffffffffffffffffffffffffffffffffffff021916908373ffffffffffffffffffffffffffffffffffffffff16021790555060608201518160030160006101000a81548173ffffffffffffffffffffffffffffffffffffffff021916908373ffffffffffffffffffffffffffffffffffffffff160217905550608082015181600401908051906020019061285f92919061349b565b5060a082015181600501908051906020019061287c92919061349b565b5060c082015181600601908051906020019061289992919061349b565b5060e08201518160070190805190602001906128b692919061349b565b5061010082015181600801556101208201518160090190805190602001906128df92919061349b565b5061014082015181600a015561016082015181600b0160006101000a81548160ff0219169083600781111561291757612916613fbb565b5b021790555061018082015181600b0160016101000a81548173ffffffffffffffffffffffffffffffffffffffff021916908373ffffffffffffffffffffffffffffffffffffffff1602179055506101a082015181600c0160006101000a81548173ffffffffffffffffffffffffffffffffffffffff021916908373ffffffffffffffffffffffffffffffffffffffff1602179055506101c082015181600d0160006101000a81548173ffffffffffffffffffffffffffffffffffffffff021916908373ffffffffffffffffffffffffffffffffffffffff1602179055509050507f9b3b66e2380b690bae22c73ef1428fb0c91e72fe14a4b6defa13035214187aff83604051612a269190613fea565b60405180910390a1505050565b600573__Coffee________________________________633cdc662b9091836040518363ffffffff1660e01b8152600401612a6f929190613c0a565b602060405180830381865af4158015612a8c573d6000803e3d6000fd5b505050506040513d601f19601f82011682018060405250810190612ab09190613c48565b8073ffffffffffffffffffffffffffffffffffffffff163373ffffffffffffffffffffffffffffffffffffffff1614612ae857600080fd5b612af1336112ff565b612afa57600080fd5b600573__Coffee________________________________63909b56349091846040518363ffffffff1660e01b8152600401612b36929190613c0a565b602060405180830381865af4158015612b53573d6000803e3d6000fd5b505050506040513d601f19601f82011682018060405250810190612b779190613ca1565b612b8057600080fd5b6000600573__Coffee________________________________63be6f635f9091856040518363ffffffff1660e01b8152600401612bbe929190613c0a565b600060405180830381865af4158015612bdb573d6000803e3d6000fd5b505050506040513d6000823e3d601f19601f82011682018060405250810190612c049190613f72565b905060058161016001906007811115612c2057612c1f613fbb565b5b90816007811115612c3457612c33613fbb565b5b815250508060056000016000858152602001908152602001600020600082015181600001556020820151816001015560408201518160020160006101000a81548173ffffffffffffffffffffffffffffffffffffffff021916908373ffffffffffffffffffffffffffffffffffffffff16021790555060608201518160030160006101000a81548173ffffffffffffffffffffffffffffffffffffffff021916908373ffffffffffffffffffffffffffffffffffffffff1602179055506080820151816004019080519060200190612d0d92919061349b565b5060a0820151816005019080519060200190612d2a92919061349b565b5060c0820151816006019080519060200190612d4792919061349b565b5060e0820151816007019080519060200190612d6492919061349b565b506101008201518160080155610120820151816009019080519060200190612d8d92919061349b565b5061014082015181600a015561016082015181600b0160006101000a81548160ff02191690836007811115612dc557612dc4613fbb565b5b021790555061018082015181600b0160016101000a81548173ffffffffffffffffffffffffffffffffffffffff021916908373ffffffffffffffffffffffffffffffffffffffff1602179055506101a082015181600c0160006101000a81548173ffffffffffffffffffffffffffffffffffffffff021916908373ffffffffffffffffffffffffffffffffffffffff1602179055506101c082015181600d0160006101000a81548173ffffffffffffffffffffffffffffffffffffffff021916908373ffffffffffffffffffffffffffffffffffffffff1602179055509050507ff00b9a5725b80c54016f42114f6ed7792d22eecb116011c4afac29c57bef6c9583604051612ed49190613fea565b60405180910390a1505050565b80600073ffffffffffffffffffffffffffffffffffffffff168173ffffffffffffffffffffffffffffffffffffffff161415612f1c57600080fd5b612f268383612fe9565b15612f3057600080fd5b60018360000160008473ffffffffffffffffffffffffffffffffffffffff1673ffffffffffffffffffffffffffffffffffffffff16815260200190815260200160002060006101000a81548160ff021916908315150217905550505050565b612fa3816003612ee190919063ffffffff16565b8073ffffffffffffffffffffffffffffffffffffffff167f28b26e7a3d20aedbc5f8f2ebf7da671c0491723a2b78f47a097b0e46dee0714260405160405180910390a250565b600081600073ffffffffffffffffffffffffffffffffffffffff168173ffffffffffffffffffffffffffffffffffffffff16141561302657600080fd5b8360000160008473ffffffffffffffffffffffffffffffffffffffff1673ffffffffffffffffffffffffffffffffffffffff16815260200190815260200160002060009054906101000a900460ff1691505092915050565b6130928160036133ee90919063ffffffff16565b8073ffffffffffffffffffffffffffffffffffffffff167fe3f5ed5f263f1f01764a96edfc7d025f511ec5f7d180e8816908b78bcf74f09860405160405180910390a250565b6130ec8160016133ee90919063ffffffff16565b8073ffffffffffffffffffffffffffffffffffffffff167f126174f6cf49c81cdb4a9214c6b8f037bef55b4ec31e4fc776cea2a1c8a88d5960405160405180910390a250565b613146816001612ee190919063ffffffff16565b8073ffffffffffffffffffffffffffffffffffffffff167fddbf200aa634dc3fb81cfd68583dd1040d1c751d335e1d86b631bde3e977fea860405160405180910390a250565b6131a0816000612ee190919063ffffffff16565b8073ffffffffffffffffffffffffffffffffffffffff167f2e0ded4123377a3c2bc9a26f1717655a129e2f20752924d42e730ec89c83dbd060405160405180910390a250565b6131fa8160006133ee90919063ffffffff16565b8073ffffffffffffffffffffffffffffffffffffffff167fa5e0f060af304ab17dd418c7927e3da3ae7868189bf387aee09ab179ccc572f260405160405180910390a250565b613254816002612ee190919063ffffffff16565b8073ffffffffffffffffffffffffffffffffffffffff167f71ae26cad02663e3d92efd6ec56031a80d74a20c0ab4183faa8bf262261c9baa60405160405180910390a250565b6132ae8160026133ee90919063ffffffff16565b8073ffffffffffffffffffffffffffffffffffffffff167fdb7176e79cffef81cb01767dd0447a0b24bb72ca9778d4b245581086b2a7e6db60405160405180910390a250565b600073ffffffffffffffffffffffffffffffffffffffff168173ffffffffffffffffffffffffffffffffffffffff16141561332e57600080fd5b8073ffffffffffffffffffffffffffffffffffffffff16600460009054906101000a900473ffffffffffffffffffffffffffffffffffffffff1673ffffffffffffffffffffffffffffffffffffffff167f5c486528ec3e3f0ea91181cff8116f02bfa350e03b8b6f12e00765adbb5af85c60405160405180910390a380600460006101000a81548173ffffffffffffffffffffffffffffffffffffffff021916908373ffffffffffffffffffffffffffffffffffffffff16021790555050565b80600073ffffffffffffffffffffffffffffffffffffffff168173ffffffffffffffffffffffffffffffffffffffff16141561342957600080fd5b6134338383612fe9565b61343c57600080fd5b60008360000160008473ffffffffffffffffffffffffffffffffffffffff1673ffffffffffffffffffffffffffffffffffffffff16815260200190815260200160002060006101000a81548160ff021916908315150217905550505050565b8280546134a7906140ed565b90600052602060002090601f0160209004810192826134c95760008555613510565b82601f106134e257805160ff1916838001178555613510565b82800160010185558215613510579182015b8281111561350f5782518255916020019190600101906134f4565b5b50905061351d9190613617565b5090565b604051806101e001604052806000815260200160008152602001600073ffffffffffffffffffffffffffffffffffffffff168152602001600073ffffffffffffffffffffffffffffffffffffffff16815260200160608152602001606081526020016060815260200160608152602001600081526020016060815260200160008152602001600060078111156135ba576135b9613fbb565b5b8152602001600073ffffffffffffffffffffffffffffffffffffffff168152602001600073ffffffffffffffffffffffffffffffffffffffff168152602001600073ffffffffffffffffffffffffffffffffffffffff1681525090565b5b80821115613630576000816000905550600101613618565b5090565b6000604051905090565b600080fd5b600080fd5b600073ffffffffffffffffffffffffffffffffffffffff82169050919050565b600061367382613648565b9050919050565b61368381613668565b811461368e57600080fd5b50565b6000813590506136a08161367a565b92915050565b6000602082840312156136bc576136bb61363e565b5b60006136ca84828501613691565b91505092915050565b6000819050919050565b6136e6816136d3565b81146136f157600080fd5b50565b600081359050613703816136dd565b92915050565b600080604083850312156137205761371f61363e565b5b600061372e858286016136f4565b925050602061373f858286016136f4565b9150509250929050565b60006020828403121561375f5761375e61363e565b5b600061376d848285016136f4565b91505092915050565b60008115159050919050565b61378b81613776565b82525050565b60006020820190506137a66000830184613782565b92915050565b6137b5816136d3565b82525050565b600081519050919050565b600082825260208201905092915050565b60005b838110156137f55780820151818401526020810190506137da565b83811115613804576000848401525b50505050565b6000601f19601f8301169050919050565b6000613826826137bb565b61383081856137c6565b93506138408185602086016137d7565b6138498161380a565b840191505092915050565b61385d81613668565b82525050565b600061012082019050613879600083018c6137ac565b613886602083018b6137ac565b613893604083018a6137ac565b81810360608301526138a5818961381b565b90506138b460808301886137ac565b6138c160a08301876137ac565b6138ce60c0830186613854565b6138db60e0830185613854565b6138e9610100830184613854565b9a9950505050505050505050565b60006101008201905061390d600083018b6137ac565b61391a602083018a6137ac565b6139276040830189613854565b6139346060830188613854565b8181036080830152613946818761381b565b905081810360a083015261395a818661381b565b905081810360c083015261396e818561381b565b905081810360e0830152613982818461381b565b90509998505050505050505050565b600080fd5b600080fd5b7f4e487b7100000000000000000000000000000000000000000000000000000000600052604160045260246000fd5b6139d38261380a565b810181811067ffffffffffffffff821117156139f2576139f161399b565b5b80604052505050565b6000613a05613634565b9050613a1182826139ca565b919050565b600067ffffffffffffffff821115613a3157613a3061399b565b5b613a3a8261380a565b9050602081019050919050565b82818337600083830152505050565b6000613a69613a6484613a16565b6139fb565b905082815260208101848484011115613a8557613a84613996565b5b613a90848285613a47565b509392505050565b600082601f830112613aad57613aac613991565b5b8135613abd848260208601613a56565b91505092915050565b600080600080600080600060e0888a031215613ae557613ae461363e565b5b6000613af38a828b016136f4565b9750506020613b048a828b01613691565b965050604088013567ffffffffffffffff811115613b2557613b24613643565b5b613b318a828b01613a98565b955050606088013567ffffffffffffffff811115613b5257613b51613643565b5b613b5e8a828b01613a98565b945050608088013567ffffffffffffffff811115613b7f57613b7e613643565b5b613b8b8a828b01613a98565b93505060a088013567ffffffffffffffff811115613bac57613bab613643565b5b613bb88a828b01613a98565b92505060c088013567ffffffffffffffff811115613bd957613bd8613643565b5b613be58a828b01613a98565b91505092959891949750929550565b8082525050565b613c04816136d3565b82525050565b6000604082019050613c1f6000830185613bf4565b613c2c6020830184613bfb565b9392505050565b600081519050613c428161367a565b92915050565b600060208284031215613c5e57613c5d61363e565b5b6000613c6c84828501613c33565b91505092915050565b613c7e81613776565b8114613c8957600080fd5b50565b600081519050613c9b81613c75565b92915050565b600060208284031215613cb757613cb661363e565b5b6000613cc584828501613c8c565b91505092915050565b600080fd5b600080fd5b600081519050613ce7816136dd565b92915050565b6000613d00613cfb84613a16565b6139fb565b905082815260208101848484011115613d1c57613d1b613996565b5b613d278482856137d7565b509392505050565b600082601f830112613d4457613d43613991565b5b8151613d54848260208601613ced565b91505092915050565b60088110613d6a57600080fd5b50565b600081519050613d7c81613d5d565b92915050565b60006101e08284031215613d9957613d98613cce565b5b613da46101e06139fb565b90506000613db484828501613cd8565b6000830152506020613dc884828501613cd8565b6020830152506040613ddc84828501613c33565b6040830152506060613df084828501613c33565b606083015250608082015167ffffffffffffffff811115613e1457613e13613cd3565b5b613e2084828501613d2f565b60808301525060a082015167ffffffffffffffff811115613e4457613e43613cd3565b5b613e5084828501613d2f565b60a08301525060c082015167ffffffffffffffff811115613e7457613e73613cd3565b5b613e8084828501613d2f565b60c08301525060e082015167ffffffffffffffff811115613ea457613ea3613cd3565b5b613eb084828501613d2f565b60e083015250610100613ec584828501613cd8565b6101008301525061012082015167ffffffffffffffff811115613eeb57613eea613cd3565b5b613ef784828501613d2f565b61012083015250610140613f0d84828501613cd8565b61014083015250610160613f2384828501613d6d565b61016083015250610180613f3984828501613c33565b610180830152506101a0613f4f84828501613c33565b6101a0830152506101c0613f6584828501613c33565b6101c08301525092915050565b600060208284031215613f8857613f8761363e565b5b600082015167ffffffffffffffff811115613fa657613fa5613643565b5b613fb284828501613d82565b91505092915050565b7f4e487b7100000000000000000000000000000000000000000000000000000000600052602160045260246000fd5b6000602082019050613fff60008301846137ac565b92915050565b7f4e487b7100000000000000000000000000000000000000000000000000000000600052601160045260246000fd5b600061403f826136d3565b915061404a836136d3565b9250827fffffffffffffffffffffffffffffffffffffffffffffffffffffffffffffffff0382111561407f5761407e614005565b5b828201905092915050565b6000614095826136d3565b91506140a0836136d3565b9250828210156140b3576140b2614005565b5b828203905092915050565b7f4e487b7100000000000000000000000000000000000000000000000000000000600052602260045260246000fd5b6000600282049050600182168061410557607f821691505b60208210811415614119576141186140be565b5b5091905056fea26469706673582212203fda2e48b930697212d549ec860a6e369eb1765eedfcd15c90dec694b0bbcf9d64736f6c634300080c0033",
  "immutableReferences": {},
  "source": "// SPDX-License-Identifier: MIT\npragma solidity ^0.8.0;\n\nimport \"../coffeeaccesscontrol/FarmerRole.sol\";\nimport \"../coffeeaccesscontrol/DistributorRole.sol\";\nimport \"../coffeeaccesscontrol/RetailerRole.sol\";\nimport \"../coffeeaccesscontrol/ConsumerRole.sol\";\nimport \"../coffeecore/Ownable.sol\";\nimport \"./Coffee.sol\";\n\n// Define a contract 'Supplychain'\ncontract SupplyChain is\n    FarmerRole,\n    DistributorRole,\n    RetailerRole,\n    ConsumerRole,\n    Ownable\n{\n    using Coffee for Data;\n    Data private coffee;\n\n    // Define 'owner'\n    address owner;\n\n    // Define a variable called 'sku' for Stock Keeping Unit (SKU)\n    uint256 sku;\n\n    // Define 8 events with the same 8 state values and accept 'upc' as input argument\n    event Harvested(uint256 upc);\n    event Processed(uint256 upc);\n    event Packed(uint256 upc);\n    event ForSale(uint256 upc);\n    event Sold(uint256 upc);\n    event Shipped(uint256 upc);\n    event Received(uint256 upc);\n    event Purchased(uint256 upc);\n\n    // Define a modifer that checks to see if msg.sender == owner of the contract\n    modifier onlyOwner() {\n        require(msg.sender == owner);\n        _;\n    }\n\n    // Define a modifer that verifies the Caller\n    modifier verifyCaller(address _address) {\n        require(msg.sender == _address);\n        _;\n    }\n\n    // In the constructor set 'owner' to the address that instantiated the contract\n    // and set 'sku' to 1\n    constructor() payable {\n        owner = msg.sender;\n        sku = 1;\n    }\n\n    // Define a function 'kill' if required\n    function kill() public {\n        if (msg.sender == owner) {\n            selfdestruct(payable(owner));\n        }\n    }\n\n    // Define a function 'harvestItem' that allows a farmer to mark an item 'Harvested'\n    function harvestItem(\n        uint256 _upc,\n        address _originFarmerID,\n        string memory _originFarmName,\n        string memory _originFarmInformation,\n        string memory _originFarmLatitude,\n        string memory _originFarmLongitude,\n        string memory _productNotes\n    ) public onlyFarmer {\n        // Add the new item as part of Harvest\n        Item memory item;\n        item.sku = sku;\n        item.upc = _upc;\n        item.ownerID = _originFarmerID;\n        item.originFarmerID = _originFarmerID;\n        item.originFarmName = _originFarmName;\n        item.originFarmInformation = _originFarmInformation;\n        item.originFarmLatitude = _originFarmLatitude;\n        item.originFarmLongitude = _originFarmLongitude;\n        item.itemState = State.Harvested;\n        item.productID = sku + _upc;\n        item.productNotes = _productNotes;\n        coffee.items[_upc] = item;\n        // Increment sku\n        sku = sku + 1;\n        // Emit the appropriate event\n        emit Harvested(_upc);\n    }\n\n    // Define a function 'processtItem' that allows a farmer to mark an item 'Processed'\n    function processItem(uint256 _upc)\n        public\n        verifyCaller(coffee.getItemOwnerId(_upc))\n    {\n        require(coffee.harvested(_upc));\n        // Update the appropriate fields]\n        Item memory item = coffee.getItem(_upc);\n        item.itemState = State.Processed;\n        coffee.items[_upc] = item;\n        // Emit the appropriate event\n        emit Processed(_upc);\n    }\n\n    // Define a function 'packItem' that allows a farmer to mark an item 'Packed'\n    function packItem(uint256 _upc)\n        public\n        verifyCaller(coffee.getItemOwnerId(_upc))\n    {\n        require(coffee.processed(_upc));\n        // Update the appropriate fields]\n        Item memory item = coffee.getItem(_upc);\n        item.itemState = State.Packed;\n        coffee.items[_upc] = item;\n        // Emit the appropriate event\n        emit Packed(_upc);\n    }\n\n    // Define a function 'sellItem' that allows a farmer to mark an item 'ForSale'\n    function sellItem(uint256 _upc, uint256 _price)\n        public\n        verifyCaller(coffee.getItemOwnerId(_upc))\n    {\n        require(coffee.packed(_upc));\n        // Update the appropriate fields]\n        Item memory item = coffee.getItem(_upc);\n        item.itemState = State.ForSale;\n        item.productPrice = _price;\n        coffee.items[_upc] = item;\n        // Emit the appropriate event\n        emit ForSale(_upc);\n    }\n\n    // Define a function 'buyItem' that allows the disributor to mark an item 'Sold'\n    // Use the above defined modifiers to check if the item is available for sale, if the buyer has paid enough,\n    // and any excess ether sent is refunded back to the buyer\n    function buyItem(uint256 _upc) public payable onlyDistributor {\n        require(coffee.forSale(_upc)); // is for sale\n        require(msg.value >= coffee.items[_upc].productPrice); // checks if the paid amount is sufficient to cover the price\n        payable(msg.sender).transfer(\n            msg.value - coffee.items[_upc].productPrice\n        ); // refund the remaining balance\n\n        // Update the appropriate fields - ownerID, distributorID, itemState\n        Item memory item = coffee.getItem(_upc);\n        address payable farmerID = payable(item.ownerID);\n        item.ownerID = msg.sender;\n        item.distributorID = msg.sender;\n        item.itemState = State.Sold;\n\n        // Transfer money to farmer\n        farmerID.transfer(item.productPrice);\n\n        coffee.items[_upc] = item;\n        // emit the appropriate event\n        emit Sold(_upc);\n    }\n\n    // Define a function 'shipItem' that allows the distributor to mark an item 'Shipped'\n    // Use the above modifers to check if the item is sold\n    function shipItem(uint256 _upc)\n        public\n        verifyCaller(coffee.getItemOwnerId(_upc))\n        onlyDistributor\n    {\n        require(coffee.sold(_upc));\n        // Update the appropriate fields\n        Item memory item = coffee.getItem(_upc);\n        item.itemState = State.Shipped;\n        coffee.items[_upc] = item;\n        // Emit the appropriate event\n        emit Shipped(_upc);\n    }\n\n    // Define a function 'receiveItem' that allows the retailer to mark an item 'Received'\n    // Use the above modifiers to check if the item is shipped\n    function receiveItem(uint256 _upc) public onlyRetailer {\n        require(coffee.shipped(_upc));\n        // Update the appropriate fields - ownerID, retailerID, itemState\n        Item memory item = coffee.getItem(_upc);\n        item.ownerID = msg.sender;\n        item.retailerID = msg.sender;\n        item.itemState = State.Received;\n        coffee.items[_upc] = item;\n        // Emit the appropriate event\n        emit Received(_upc);\n    }\n\n    // Define a function 'purchaseItem' that allows the consumer to mark an item 'Purchased'\n    // Use the above modifiers to check if the item is received\n    function purchaseItem(uint256 _upc) public onlyConsumer {\n        require(coffee.received(_upc));\n        // Update the appropriate fields - ownerID, consumerID, itemState\n        Item memory item = coffee.getItem(_upc);\n        item.ownerID = msg.sender;\n        item.consumerID = msg.sender;\n        item.itemState = State.Purchased;\n        coffee.items[_upc] = item;\n        // Emit the appropriate event\n        emit Purchased(_upc);\n    }\n\n    // Define a function 'fetchItemBufferOne' that fetches the data\n    function fetchItemBufferOne(uint256 _upc)\n        public\n        view\n        returns (\n            uint256 itemSKU,\n            uint256 itemUPC,\n            address ownerID,\n            address originFarmerID,\n            string memory originFarmName,\n            string memory originFarmInformation,\n            string memory originFarmLatitude,\n            string memory originFarmLongitude\n        )\n    {\n        // Assign values to the 8 parameters\n        Item memory item = coffee.getItem(_upc);\n        itemSKU = item.sku;\n        itemUPC = item.upc;\n        ownerID = item.ownerID;\n        originFarmerID = item.originFarmerID;\n        originFarmName = item.originFarmName;\n        originFarmInformation = item.originFarmInformation;\n        originFarmLatitude = item.originFarmLatitude;\n        originFarmLongitude = item.originFarmLongitude;\n\n        return (\n            itemSKU,\n            itemUPC,\n            ownerID,\n            originFarmerID,\n            originFarmName,\n            originFarmInformation,\n            originFarmLatitude,\n            originFarmLongitude\n        );\n    }\n\n    // Define a function 'fetchItemBufferTwo' that fetches the data\n    function fetchItemBufferTwo(uint256 _upc)\n        public\n        view\n        returns (\n            uint256 itemSKU,\n            uint256 itemUPC,\n            uint256 productID,\n            string memory productNotes,\n            uint256 productPrice,\n            uint256 itemState,\n            address distributorID,\n            address retailerID,\n            address consumerID\n        )\n    {\n        // Assign values to the 9 parameters\n        Item memory item = coffee.getItem(_upc);\n        itemSKU = item.sku;\n        itemUPC = item.upc;\n        productID = item.productID;\n        productNotes = item.productNotes;\n        productPrice = item.productPrice;\n        itemState = uint256(item.itemState);\n        distributorID = item.distributorID;\n        retailerID = item.retailerID;\n        consumerID = item.consumerID;\n\n        return (\n            itemSKU,\n            itemUPC,\n            productID,\n            productNotes,\n            productPrice,\n            itemState,\n            distributorID,\n            retailerID,\n            consumerID\n        );\n    }\n}\n",
  "sourcePath": "/Users/orinamio/Desktop/Udacity Blockchain Nanodegree/projects/project_3/project-6/contracts/coffeebase/SupplyChain.sol",
  "compiler": {
    "name": "solc",
    "version": "0.8.12+commit.f00d7308.Emscripten.clang"
  },
  "schemaVersion": "3.4.4",
  "updatedAt": "2022-02-17T22:08:25.479Z",
  "networkType": "ethereum",
  "devdoc": {
    "kind": "dev",
    "methods": {},
    "version": 1
  },
  "userdoc": {
    "kind": "user",
    "methods": {
      "renounceOwnership()": {
        "notice": "Define a function to renounce ownerhip"
      },
      "transferOwnership(address)": {
        "notice": "Define a public function to transfer ownership"
      }
    },
    "version": 1
  }
}